{
    "_format": "hh-sol-artifact-1",
    "contractName": "DeBridgeGate",
    "sourceName": "contracts/transfers/DeBridgeGate.sol",
    "abi": [
        {
            "inputs": [],
            "name": "AdminBadRole",
            "type": "error"
        },
        {
            "inputs": [],
            "name": "AssetAlreadyExist",
            "type": "error"
        },
        {
            "inputs": [],
            "name": "DebridgeNotFound",
            "type": "error"
        },
        {
            "inputs": [],
            "name": "DefiControllerBadRole",
            "type": "error"
        },
        {
            "inputs": [],
            "name": "EthTransferFailed",
            "type": "error"
        },
        {
            "inputs": [],
            "name": "FeeContractUpdaterBadRole",
            "type": "error"
        },
        {
            "inputs": [],
            "name": "FeeProxyBadRole",
            "type": "error"
        },
        {
            "inputs": [],
            "name": "FlashFeeNotPaid",
            "type": "error"
        },
        {
            "inputs": [],
            "name": "GovMonitoringBadRole",
            "type": "error"
        },
        {
            "inputs": [],
            "name": "InvalidTokenToSend",
            "type": "error"
        },
        {
            "inputs": [],
            "name": "NotEnoughReserves",
            "type": "error"
        },
        {
            "inputs": [],
            "name": "NotSupportedFixedFee",
            "type": "error"
        },
        {
            "inputs": [],
            "name": "ProposedFeeTooHigh",
            "type": "error"
        },
        {
            "inputs": [],
            "name": "SignatureInvalidV",
            "type": "error"
        },
        {
            "inputs": [],
            "name": "SubmissionBlocked",
            "type": "error"
        },
        {
            "inputs": [],
            "name": "SubmissionUsed",
            "type": "error"
        },
        {
            "inputs": [],
            "name": "TransferAmountNotCoverFees",
            "type": "error"
        },
        {
            "inputs": [],
            "name": "TransferAmountTooHigh",
            "type": "error"
        },
        {
            "inputs": [],
            "name": "WrongArgument",
            "type": "error"
        },
        {
            "inputs": [],
            "name": "WrongArgumentLength",
            "type": "error"
        },
        {
            "inputs": [],
            "name": "WrongAutoArgument",
            "type": "error"
        },
        {
            "inputs": [],
            "name": "ZeroAddress",
            "type": "error"
        },
        {
            "anonymous": false,
            "inputs": [
                {
                    "indexed": false,
                    "internalType": "bytes32",
                    "name": "submissionId",
                    "type": "bytes32"
                },
                {
                    "indexed": true,
                    "internalType": "bool",
                    "name": "success",
                    "type": "bool"
                },
                {
                    "indexed": false,
                    "internalType": "address",
                    "name": "callProxy",
                    "type": "address"
                }
            ],
            "name": "AutoRequestExecuted",
            "type": "event"
        },
        {
            "anonymous": false,
            "inputs": [
                {
                    "indexed": false,
                    "internalType": "bytes32",
                    "name": "submissionId",
                    "type": "bytes32"
                }
            ],
            "name": "Blocked",
            "type": "event"
        },
        {
            "anonymous": false,
            "inputs": [
                {
                    "indexed": false,
                    "internalType": "address",
                    "name": "callProxy",
                    "type": "address"
                }
            ],
            "name": "CallProxyUpdated",
            "type": "event"
        },
        {
            "anonymous": false,
            "inputs": [
                {
                    "indexed": false,
                    "internalType": "uint256",
                    "name": "chainId",
                    "type": "uint256"
                },
                {
                    "indexed": false,
                    "internalType": "bool",
                    "name": "isSupported",
                    "type": "bool"
                },
                {
                    "indexed": false,
                    "internalType": "bool",
                    "name": "isChainFrom",
                    "type": "bool"
                }
            ],
            "name": "ChainSupportUpdated",
            "type": "event"
        },
        {
            "anonymous": false,
            "inputs": [
                {
                    "indexed": false,
                    "internalType": "uint256",
                    "name": "chainIds",
                    "type": "uint256"
                },
                {
                    "components": [
                        {
                            "internalType": "uint256",
                            "name": "fixedNativeFee",
                            "type": "uint256"
                        },
                        {
                            "internalType": "bool",
                            "name": "isSupported",
                            "type": "bool"
                        },
                        {
                            "internalType": "uint16",
                            "name": "transferFeeBps",
                            "type": "uint16"
                        }
                    ],
                    "indexed": false,
                    "internalType": "struct IDeBridgeGate.ChainSupportInfo",
                    "name": "chainSupportInfo",
                    "type": "tuple"
                },
                {
                    "indexed": false,
                    "internalType": "bool",
                    "name": "isChainFrom",
                    "type": "bool"
                }
            ],
            "name": "ChainsSupportUpdated",
            "type": "event"
        },
        {
            "anonymous": false,
            "inputs": [
                {
                    "indexed": false,
                    "internalType": "bytes32",
                    "name": "submissionId",
                    "type": "bytes32"
                },
                {
                    "indexed": true,
                    "internalType": "bytes32",
                    "name": "debridgeId",
                    "type": "bytes32"
                },
                {
                    "indexed": false,
                    "internalType": "uint256",
                    "name": "amount",
                    "type": "uint256"
                },
                {
                    "indexed": true,
                    "internalType": "address",
                    "name": "receiver",
                    "type": "address"
                },
                {
                    "indexed": false,
                    "internalType": "uint256",
                    "name": "nonce",
                    "type": "uint256"
                },
                {
                    "indexed": true,
                    "internalType": "uint256",
                    "name": "chainIdFrom",
                    "type": "uint256"
                },
                {
                    "indexed": false,
                    "internalType": "bytes",
                    "name": "autoParams",
                    "type": "bytes"
                },
                {
                    "indexed": false,
                    "internalType": "bool",
                    "name": "isNativeToken",
                    "type": "bool"
                }
            ],
            "name": "Claimed",
            "type": "event"
        },
        {
            "anonymous": false,
            "inputs": [
                {
                    "indexed": false,
                    "internalType": "uint256",
                    "name": "globalFixedNativeFee",
                    "type": "uint256"
                }
            ],
            "name": "FixedNativeFeeAutoUpdated",
            "type": "event"
        },
        {
            "anonymous": false,
            "inputs": [
                {
                    "indexed": false,
                    "internalType": "uint256",
                    "name": "globalFixedNativeFee",
                    "type": "uint256"
                },
                {
                    "indexed": false,
                    "internalType": "uint256",
                    "name": "globalTransferFeeBps",
                    "type": "uint256"
                }
            ],
            "name": "FixedNativeFeeUpdated",
            "type": "event"
        },
        {
            "anonymous": false,
            "inputs": [
                {
                    "indexed": false,
                    "internalType": "address",
                    "name": "sender",
                    "type": "address"
                },
                {
                    "indexed": true,
                    "internalType": "address",
                    "name": "tokenAddress",
                    "type": "address"
                },
                {
                    "indexed": true,
                    "internalType": "address",
                    "name": "receiver",
                    "type": "address"
                },
                {
                    "indexed": false,
                    "internalType": "uint256",
                    "name": "amount",
                    "type": "uint256"
                },
                {
                    "indexed": false,
                    "internalType": "uint256",
                    "name": "paid",
                    "type": "uint256"
                }
            ],
            "name": "Flash",
            "type": "event"
        },
        {
            "anonymous": false,
            "inputs": [
                {
                    "indexed": false,
                    "internalType": "bytes32",
                    "name": "debridgeId",
                    "type": "bytes32"
                },
                {
                    "indexed": false,
                    "internalType": "address",
                    "name": "tokenAddress",
                    "type": "address"
                },
                {
                    "indexed": false,
                    "internalType": "bytes",
                    "name": "nativeAddress",
                    "type": "bytes"
                },
                {
                    "indexed": true,
                    "internalType": "uint256",
                    "name": "nativeChainId",
                    "type": "uint256"
                },
                {
                    "indexed": false,
                    "internalType": "uint256",
                    "name": "maxAmount",
                    "type": "uint256"
                },
                {
                    "indexed": false,
                    "internalType": "uint16",
                    "name": "minReservesBps",
                    "type": "uint16"
                }
            ],
            "name": "PairAdded",
            "type": "event"
        },
        {
            "anonymous": false,
            "inputs": [
                {
                    "indexed": false,
                    "internalType": "address",
                    "name": "account",
                    "type": "address"
                }
            ],
            "name": "Paused",
            "type": "event"
        },
        {
            "anonymous": false,
            "inputs": [
                {
                    "indexed": true,
                    "internalType": "bytes32",
                    "name": "role",
                    "type": "bytes32"
                },
                {
                    "indexed": true,
                    "internalType": "bytes32",
                    "name": "previousAdminRole",
                    "type": "bytes32"
                },
                {
                    "indexed": true,
                    "internalType": "bytes32",
                    "name": "newAdminRole",
                    "type": "bytes32"
                }
            ],
            "name": "RoleAdminChanged",
            "type": "event"
        },
        {
            "anonymous": false,
            "inputs": [
                {
                    "indexed": true,
                    "internalType": "bytes32",
                    "name": "role",
                    "type": "bytes32"
                },
                {
                    "indexed": true,
                    "internalType": "address",
                    "name": "account",
                    "type": "address"
                },
                {
                    "indexed": true,
                    "internalType": "address",
                    "name": "sender",
                    "type": "address"
                }
            ],
            "name": "RoleGranted",
            "type": "event"
        },
        {
            "anonymous": false,
            "inputs": [
                {
                    "indexed": true,
                    "internalType": "bytes32",
                    "name": "role",
                    "type": "bytes32"
                },
                {
                    "indexed": true,
                    "internalType": "address",
                    "name": "account",
                    "type": "address"
                },
                {
                    "indexed": true,
                    "internalType": "address",
                    "name": "sender",
                    "type": "address"
                }
            ],
            "name": "RoleRevoked",
            "type": "event"
        },
        {
            "anonymous": false,
            "inputs": [
                {
                    "indexed": false,
                    "internalType": "bytes32",
                    "name": "submissionId",
                    "type": "bytes32"
                },
                {
                    "indexed": true,
                    "internalType": "bytes32",
                    "name": "debridgeId",
                    "type": "bytes32"
                },
                {
                    "indexed": false,
                    "internalType": "uint256",
                    "name": "amount",
                    "type": "uint256"
                },
                {
                    "indexed": false,
                    "internalType": "bytes",
                    "name": "receiver",
                    "type": "bytes"
                },
                {
                    "indexed": false,
                    "internalType": "uint256",
                    "name": "nonce",
                    "type": "uint256"
                },
                {
                    "indexed": true,
                    "internalType": "uint256",
                    "name": "chainIdTo",
                    "type": "uint256"
                },
                {
                    "indexed": false,
                    "internalType": "uint32",
                    "name": "referralCode",
                    "type": "uint32"
                },
                {
                    "components": [
                        {
                            "internalType": "uint256",
                            "name": "receivedAmount",
                            "type": "uint256"
                        },
                        {
                            "internalType": "uint256",
                            "name": "fixFee",
                            "type": "uint256"
                        },
                        {
                            "internalType": "uint256",
                            "name": "transferFee",
                            "type": "uint256"
                        },
                        {
                            "internalType": "bool",
                            "name": "useAssetFee",
                            "type": "bool"
                        },
                        {
                            "internalType": "bool",
                            "name": "isNativeToken",
                            "type": "bool"
                        }
                    ],
                    "indexed": false,
                    "internalType": "struct IDeBridgeGate.FeeParams",
                    "name": "feeParams",
                    "type": "tuple"
                },
                {
                    "indexed": false,
                    "internalType": "bytes",
                    "name": "autoParams",
                    "type": "bytes"
                },
                {
                    "indexed": false,
                    "internalType": "address",
                    "name": "nativeSender",
                    "type": "address"
                }
            ],
            "name": "Sent",
            "type": "event"
        },
        {
            "anonymous": false,
            "inputs": [
                {
                    "indexed": false,
                    "internalType": "bytes32",
                    "name": "submissionId",
                    "type": "bytes32"
                }
            ],
            "name": "Unblocked",
            "type": "event"
        },
        {
            "anonymous": false,
            "inputs": [
                {
                    "indexed": false,
                    "internalType": "address",
                    "name": "account",
                    "type": "address"
                }
            ],
            "name": "Unpaused",
            "type": "event"
        },
        {
            "anonymous": false,
            "inputs": [
                {
                    "indexed": false,
                    "internalType": "bytes32",
                    "name": "debridgeId",
                    "type": "bytes32"
                },
                {
                    "indexed": false,
                    "internalType": "uint256",
                    "name": "fee",
                    "type": "uint256"
                }
            ],
            "name": "WithdrawnFee",
            "type": "event"
        },
        {
            "inputs": [],
            "name": "BPS_DENOMINATOR",
            "outputs": [
                {
                    "internalType": "uint256",
                    "name": "",
                    "type": "uint256"
                }
            ],
            "stateMutability": "view",
            "type": "function"
        },
        {
            "inputs": [],
            "name": "DEFAULT_ADMIN_ROLE",
            "outputs": [
                {
                    "internalType": "bytes32",
                    "name": "",
                    "type": "bytes32"
                }
            ],
            "stateMutability": "view",
            "type": "function"
        },
        {
            "inputs": [],
            "name": "DEPLOY_PREFIX",
            "outputs": [
                {
                    "internalType": "uint256",
                    "name": "",
                    "type": "uint256"
                }
            ],
            "stateMutability": "view",
            "type": "function"
        },
        {
            "inputs": [],
            "name": "GOVMONITORING_ROLE",
            "outputs": [
                {
                    "internalType": "bytes32",
                    "name": "",
                    "type": "bytes32"
                }
            ],
            "stateMutability": "view",
            "type": "function"
        },
        {
            "inputs": [],
            "name": "SUBMISSION_PREFIX",
            "outputs": [
                {
                    "internalType": "uint256",
                    "name": "",
                    "type": "uint256"
                }
            ],
            "stateMutability": "view",
            "type": "function"
        },
        {
            "inputs": [
                {
                    "internalType": "uint256",
                    "name": "_globalFixedNativeFee",
                    "type": "uint256"
                }
            ],
            "name": "autoUpdateFixedNativeFee",
            "outputs": [],
            "stateMutability": "nonpayable",
            "type": "function"
        },
        {
            "inputs": [
                {
                    "internalType": "bytes32[]",
                    "name": "_submissionIds",
                    "type": "bytes32[]"
                },
                {
                    "internalType": "bool",
                    "name": "isBlocked",
                    "type": "bool"
                }
            ],
            "name": "blockSubmission",
            "outputs": [],
            "stateMutability": "nonpayable",
            "type": "function"
        },
        {
            "inputs": [],
            "name": "callProxy",
            "outputs": [
                {
                    "internalType": "address",
                    "name": "",
                    "type": "address"
                }
            ],
            "stateMutability": "view",
            "type": "function"
        },
        {
            "inputs": [
                {
                    "internalType": "bytes32",
                    "name": "_debridgeId",
                    "type": "bytes32"
                },
                {
                    "internalType": "uint256",
                    "name": "_amount",
                    "type": "uint256"
                },
                {
                    "internalType": "uint256",
                    "name": "_chainIdFrom",
                    "type": "uint256"
                },
                {
                    "internalType": "address",
                    "name": "_receiver",
                    "type": "address"
                },
                {
                    "internalType": "uint256",
                    "name": "_nonce",
                    "type": "uint256"
                },
                {
                    "internalType": "bytes",
                    "name": "_signatures",
                    "type": "bytes"
                },
                {
                    "internalType": "bytes",
                    "name": "_autoParams",
                    "type": "bytes"
                },
                {
                    "internalType": "address",
                    "name": "_token",
                    "type": "address"
                }
            ],
            "name": "claim",
            "outputs": [],
            "stateMutability": "nonpayable",
            "type": "function"
        },
        {
            "inputs": [],
            "name": "deBridgeTokenDeployer",
            "outputs": [
                {
                    "internalType": "address",
                    "name": "",
                    "type": "address"
                }
            ],
            "stateMutability": "view",
            "type": "function"
        },
        {
            "inputs": [],
            "name": "defiController",
            "outputs": [
                {
                    "internalType": "address",
                    "name": "",
                    "type": "address"
                }
            ],
            "stateMutability": "view",
            "type": "function"
        },
        {
            "inputs": [
                {
                    "internalType": "bytes",
                    "name": "_nativeTokenAddress",
                    "type": "bytes"
                },
                {
                    "internalType": "uint256",
                    "name": "_nativeChainId",
                    "type": "uint256"
                },
                {
                    "internalType": "string",
                    "name": "_name",
                    "type": "string"
                },
                {
                    "internalType": "string",
                    "name": "_symbol",
                    "type": "string"
                },
                {
                    "internalType": "uint8",
                    "name": "_decimals",
                    "type": "uint8"
                },
                {
                    "internalType": "bytes",
                    "name": "_signatures",
                    "type": "bytes"
                }
            ],
            "name": "deployNewAsset",
            "outputs": [],
            "stateMutability": "nonpayable",
            "type": "function"
        },
        {
            "inputs": [],
            "name": "excessConfirmations",
            "outputs": [
                {
                    "internalType": "uint8",
                    "name": "",
                    "type": "uint8"
                }
            ],
            "stateMutability": "view",
            "type": "function"
        },
        {
            "inputs": [],
            "name": "feeContractUpdater",
            "outputs": [
                {
                    "internalType": "address",
                    "name": "",
                    "type": "address"
                }
            ],
            "stateMutability": "view",
            "type": "function"
        },
        {
            "inputs": [
                {
                    "internalType": "address",
                    "name": "",
                    "type": "address"
                }
            ],
            "name": "feeDiscount",
            "outputs": [
                {
                    "internalType": "uint16",
                    "name": "discountFixBps",
                    "type": "uint16"
                },
                {
                    "internalType": "uint16",
                    "name": "discountTransferBps",
                    "type": "uint16"
                }
            ],
            "stateMutability": "view",
            "type": "function"
        },
        {
            "inputs": [],
            "name": "feeProxy",
            "outputs": [
                {
                    "internalType": "address",
                    "name": "",
                    "type": "address"
                }
            ],
            "stateMutability": "view",
            "type": "function"
        },
        {
            "inputs": [
                {
                    "internalType": "address",
                    "name": "_tokenAddress",
                    "type": "address"
                },
                {
                    "internalType": "address",
                    "name": "_receiver",
                    "type": "address"
                },
                {
                    "internalType": "uint256",
                    "name": "_amount",
                    "type": "uint256"
                },
                {
                    "internalType": "bytes",
                    "name": "_data",
                    "type": "bytes"
                }
            ],
            "name": "flash",
            "outputs": [],
            "stateMutability": "nonpayable",
            "type": "function"
        },
        {
            "inputs": [],
            "name": "flashFeeBps",
            "outputs": [
                {
                    "internalType": "uint256",
                    "name": "",
                    "type": "uint256"
                }
            ],
            "stateMutability": "view",
            "type": "function"
        },
        {
            "inputs": [
                {
                    "internalType": "bytes32",
                    "name": "",
                    "type": "bytes32"
                }
            ],
            "name": "getAmountThreshold",
            "outputs": [
                {
                    "internalType": "uint256",
                    "name": "",
                    "type": "uint256"
                }
            ],
            "stateMutability": "view",
            "type": "function"
        },
        {
            "inputs": [
                {
                    "internalType": "uint256",
                    "name": "",
                    "type": "uint256"
                }
            ],
            "name": "getChainFromConfig",
            "outputs": [
                {
                    "internalType": "uint256",
                    "name": "fixedNativeFee",
                    "type": "uint256"
                },
                {
                    "internalType": "bool",
                    "name": "isSupported",
                    "type": "bool"
                },
                {
                    "internalType": "uint16",
                    "name": "transferFeeBps",
                    "type": "uint16"
                }
            ],
            "stateMutability": "view",
            "type": "function"
        },
        {
            "inputs": [],
            "name": "getChainId",
            "outputs": [
                {
                    "internalType": "uint256",
                    "name": "cid",
                    "type": "uint256"
                }
            ],
            "stateMutability": "view",
            "type": "function"
        },
        {
            "inputs": [
                {
                    "internalType": "uint256",
                    "name": "",
                    "type": "uint256"
                }
            ],
            "name": "getChainToConfig",
            "outputs": [
                {
                    "internalType": "uint256",
                    "name": "fixedNativeFee",
                    "type": "uint256"
                },
                {
                    "internalType": "bool",
                    "name": "isSupported",
                    "type": "bool"
                },
                {
                    "internalType": "uint16",
                    "name": "transferFeeBps",
                    "type": "uint16"
                }
            ],
            "stateMutability": "view",
            "type": "function"
        },
        {
            "inputs": [
                {
                    "internalType": "bytes32",
                    "name": "",
                    "type": "bytes32"
                }
            ],
            "name": "getDebridge",
            "outputs": [
                {
                    "internalType": "uint256",
                    "name": "chainId",
                    "type": "uint256"
                },
                {
                    "internalType": "uint256",
                    "name": "maxAmount",
                    "type": "uint256"
                },
                {
                    "internalType": "uint256",
                    "name": "balance",
                    "type": "uint256"
                },
                {
                    "internalType": "uint256",
                    "name": "lockedInStrategies",
                    "type": "uint256"
                },
                {
                    "internalType": "address",
                    "name": "tokenAddress",
                    "type": "address"
                },
                {
                    "internalType": "uint16",
                    "name": "minReservesBps",
                    "type": "uint16"
                },
                {
                    "internalType": "bool",
                    "name": "exist",
                    "type": "bool"
                }
            ],
            "stateMutability": "view",
            "type": "function"
        },
        {
            "inputs": [
                {
                    "internalType": "bytes32",
                    "name": "_debridgeId",
                    "type": "bytes32"
                },
                {
                    "internalType": "uint256",
                    "name": "_chainId",
                    "type": "uint256"
                }
            ],
            "name": "getDebridgeChainAssetFixedFee",
            "outputs": [
                {
                    "internalType": "uint256",
                    "name": "",
                    "type": "uint256"
                }
            ],
            "stateMutability": "view",
            "type": "function"
        },
        {
            "inputs": [
                {
                    "internalType": "bytes32",
                    "name": "",
                    "type": "bytes32"
                }
            ],
            "name": "getDebridgeFeeInfo",
            "outputs": [
                {
                    "internalType": "uint256",
                    "name": "collectedFees",
                    "type": "uint256"
                },
                {
                    "internalType": "uint256",
                    "name": "withdrawnFees",
                    "type": "uint256"
                }
            ],
            "stateMutability": "view",
            "type": "function"
        },
        {
            "inputs": [
                {
                    "internalType": "uint256",
                    "name": "_chainId",
                    "type": "uint256"
                },
                {
                    "internalType": "address",
                    "name": "_tokenAddress",
                    "type": "address"
                }
            ],
            "name": "getDebridgeId",
            "outputs": [
                {
                    "internalType": "bytes32",
                    "name": "",
                    "type": "bytes32"
                }
            ],
            "stateMutability": "pure",
            "type": "function"
        },
        {
            "inputs": [
                {
                    "internalType": "address",
                    "name": "_tokenAddress",
                    "type": "address"
                }
            ],
            "name": "getDefiAvaliableReserves",
            "outputs": [
                {
                    "internalType": "uint256",
                    "name": "",
                    "type": "uint256"
                }
            ],
            "stateMutability": "view",
            "type": "function"
        },
        {
            "inputs": [
                {
                    "internalType": "bytes32",
                    "name": "_debridgeId",
                    "type": "bytes32"
                },
                {
                    "internalType": "string",
                    "name": "_name",
                    "type": "string"
                },
                {
                    "internalType": "string",
                    "name": "_symbol",
                    "type": "string"
                },
                {
                    "internalType": "uint8",
                    "name": "_decimals",
                    "type": "uint8"
                }
            ],
            "name": "getDeployId",
            "outputs": [
                {
                    "internalType": "bytes32",
                    "name": "",
                    "type": "bytes32"
                }
            ],
            "stateMutability": "pure",
            "type": "function"
        },
        {
            "inputs": [
                {
                    "internalType": "address",
                    "name": "",
                    "type": "address"
                }
            ],
            "name": "getNativeInfo",
            "outputs": [
                {
                    "internalType": "uint256",
                    "name": "nativeChainId",
                    "type": "uint256"
                },
                {
                    "internalType": "bytes",
                    "name": "nativeAddress",
                    "type": "bytes"
                }
            ],
            "stateMutability": "view",
            "type": "function"
        },
        {
            "inputs": [
                {
                    "internalType": "address",
                    "name": "currentTokenAddress",
                    "type": "address"
                }
            ],
            "name": "getNativeTokenInfo",
            "outputs": [
                {
                    "internalType": "uint256",
                    "name": "nativeChainId",
                    "type": "uint256"
                },
                {
                    "internalType": "bytes",
                    "name": "nativeAddress",
                    "type": "bytes"
                }
            ],
            "stateMutability": "view",
            "type": "function"
        },
        {
            "inputs": [
                {
                    "internalType": "bytes32",
                    "name": "role",
                    "type": "bytes32"
                }
            ],
            "name": "getRoleAdmin",
            "outputs": [
                {
                    "internalType": "bytes32",
                    "name": "",
                    "type": "bytes32"
                }
            ],
            "stateMutability": "view",
            "type": "function"
        },
        {
            "inputs": [
                {
                    "internalType": "bytes32",
                    "name": "_debridgeId",
                    "type": "bytes32"
                },
                {
                    "internalType": "uint256",
                    "name": "_chainIdFrom",
                    "type": "uint256"
                },
                {
                    "internalType": "uint256",
                    "name": "_amount",
                    "type": "uint256"
                },
                {
                    "internalType": "address",
                    "name": "_receiver",
                    "type": "address"
                },
                {
                    "internalType": "uint256",
                    "name": "_nonce",
                    "type": "uint256"
                },
                {
                    "components": [
                        {
                            "internalType": "uint256",
                            "name": "executionFee",
                            "type": "uint256"
                        },
                        {
                            "internalType": "uint256",
                            "name": "flags",
                            "type": "uint256"
                        },
                        {
                            "internalType": "address",
                            "name": "fallbackAddress",
                            "type": "address"
                        },
                        {
                            "internalType": "bytes",
                            "name": "data",
                            "type": "bytes"
                        },
                        {
                            "internalType": "bytes",
                            "name": "nativeSender",
                            "type": "bytes"
                        }
                    ],
                    "internalType": "struct IDeBridgeGate.SubmissionAutoParamsFrom",
                    "name": "autoParams",
                    "type": "tuple"
                },
                {
                    "internalType": "bool",
                    "name": "hasAutoParams",
                    "type": "bool"
                }
            ],
            "name": "getSubmissionIdFrom",
            "outputs": [
                {
                    "internalType": "bytes32",
                    "name": "",
                    "type": "bytes32"
                }
            ],
            "stateMutability": "view",
            "type": "function"
        },
        {
            "inputs": [
                {
                    "internalType": "uint256",
                    "name": "_chainId",
                    "type": "uint256"
                },
                {
                    "internalType": "bytes",
                    "name": "_tokenAddress",
                    "type": "bytes"
                }
            ],
            "name": "getbDebridgeId",
            "outputs": [
                {
                    "internalType": "bytes32",
                    "name": "",
                    "type": "bytes32"
                }
            ],
            "stateMutability": "pure",
            "type": "function"
        },
        {
            "inputs": [],
            "name": "globalFixedNativeFee",
            "outputs": [
                {
                    "internalType": "uint256",
                    "name": "",
                    "type": "uint256"
                }
            ],
            "stateMutability": "view",
            "type": "function"
        },
        {
            "inputs": [],
            "name": "globalTransferFeeBps",
            "outputs": [
                {
                    "internalType": "uint16",
                    "name": "",
                    "type": "uint16"
                }
            ],
            "stateMutability": "view",
            "type": "function"
        },
        {
            "inputs": [
                {
                    "internalType": "bytes32",
                    "name": "role",
                    "type": "bytes32"
                },
                {
                    "internalType": "address",
                    "name": "account",
                    "type": "address"
                }
            ],
            "name": "grantRole",
            "outputs": [],
            "stateMutability": "nonpayable",
            "type": "function"
        },
        {
            "inputs": [
                {
                    "internalType": "bytes32",
                    "name": "role",
                    "type": "bytes32"
                },
                {
                    "internalType": "address",
                    "name": "account",
                    "type": "address"
                }
            ],
            "name": "hasRole",
            "outputs": [
                {
                    "internalType": "bool",
                    "name": "",
                    "type": "bool"
                }
            ],
            "stateMutability": "view",
            "type": "function"
        },
        {
            "inputs": [
                {
                    "internalType": "uint8",
                    "name": "_excessConfirmations",
                    "type": "uint8"
                },
                {
                    "internalType": "contract IWETH",
                    "name": "_weth",
                    "type": "address"
                }
            ],
            "name": "initialize",
            "outputs": [],
            "stateMutability": "nonpayable",
            "type": "function"
        },
        {
            "inputs": [
                {
                    "internalType": "bytes32",
                    "name": "",
                    "type": "bytes32"
                }
            ],
            "name": "isBlockedSubmission",
            "outputs": [
                {
                    "internalType": "bool",
                    "name": "",
                    "type": "bool"
                }
            ],
            "stateMutability": "view",
            "type": "function"
        },
        {
            "inputs": [
                {
                    "internalType": "bytes32",
                    "name": "",
                    "type": "bytes32"
                }
            ],
            "name": "isSubmissionUsed",
            "outputs": [
                {
                    "internalType": "bool",
                    "name": "",
                    "type": "bool"
                }
            ],
            "stateMutability": "view",
            "type": "function"
        },
        {
            "inputs": [],
            "name": "lockedClaim",
            "outputs": [
                {
                    "internalType": "uint256",
                    "name": "",
                    "type": "uint256"
                }
            ],
            "stateMutability": "view",
            "type": "function"
        },
        {
            "inputs": [],
            "name": "nonce",
            "outputs": [
                {
                    "internalType": "uint256",
                    "name": "",
                    "type": "uint256"
                }
            ],
            "stateMutability": "view",
            "type": "function"
        },
        {
            "inputs": [],
            "name": "pause",
            "outputs": [],
            "stateMutability": "nonpayable",
            "type": "function"
        },
        {
            "inputs": [],
            "name": "paused",
            "outputs": [
                {
                    "internalType": "bool",
                    "name": "",
                    "type": "bool"
                }
            ],
            "stateMutability": "view",
            "type": "function"
        },
        {
            "inputs": [
                {
                    "internalType": "bytes32",
                    "name": "role",
                    "type": "bytes32"
                },
                {
                    "internalType": "address",
                    "name": "account",
                    "type": "address"
                }
            ],
            "name": "renounceRole",
            "outputs": [],
            "stateMutability": "nonpayable",
            "type": "function"
        },
        {
            "inputs": [
                {
                    "internalType": "address",
                    "name": "_tokenAddress",
                    "type": "address"
                },
                {
                    "internalType": "uint256",
                    "name": "_amount",
                    "type": "uint256"
                }
            ],
            "name": "requestReserves",
            "outputs": [],
            "stateMutability": "nonpayable",
            "type": "function"
        },
        {
            "inputs": [
                {
                    "internalType": "address",
                    "name": "_tokenAddress",
                    "type": "address"
                },
                {
                    "internalType": "uint256",
                    "name": "_amount",
                    "type": "uint256"
                }
            ],
            "name": "returnReserves",
            "outputs": [],
            "stateMutability": "nonpayable",
            "type": "function"
        },
        {
            "inputs": [
                {
                    "internalType": "bytes32",
                    "name": "role",
                    "type": "bytes32"
                },
                {
                    "internalType": "address",
                    "name": "account",
                    "type": "address"
                }
            ],
            "name": "revokeRole",
            "outputs": [],
            "stateMutability": "nonpayable",
            "type": "function"
        },
        {
            "inputs": [
                {
                    "internalType": "address",
                    "name": "_tokenAddress",
                    "type": "address"
                },
                {
                    "internalType": "uint256",
                    "name": "_amount",
                    "type": "uint256"
                },
                {
                    "internalType": "uint256",
                    "name": "_chainIdTo",
                    "type": "uint256"
                },
                {
                    "internalType": "bytes",
                    "name": "_receiver",
                    "type": "bytes"
                },
                {
                    "internalType": "bytes",
                    "name": "_permit",
                    "type": "bytes"
                },
                {
                    "internalType": "bool",
                    "name": "_useAssetFee",
                    "type": "bool"
                },
                {
                    "internalType": "uint32",
                    "name": "_referralCode",
                    "type": "uint32"
                },
                {
                    "internalType": "bytes",
                    "name": "_autoParams",
                    "type": "bytes"
                }
            ],
            "name": "send",
            "outputs": [],
            "stateMutability": "payable",
            "type": "function"
        },
        {
            "inputs": [
                {
                    "internalType": "address",
                    "name": "_callProxy",
                    "type": "address"
                }
            ],
            "name": "setCallProxy",
            "outputs": [],
            "stateMutability": "nonpayable",
            "type": "function"
        },
        {
            "inputs": [
                {
                    "internalType": "uint256",
                    "name": "_chainId",
                    "type": "uint256"
                },
                {
                    "internalType": "bool",
                    "name": "_isSupported",
                    "type": "bool"
                },
                {
                    "internalType": "bool",
                    "name": "_isChainFrom",
                    "type": "bool"
                }
            ],
            "name": "setChainSupport",
            "outputs": [],
            "stateMutability": "nonpayable",
            "type": "function"
        },
        {
            "inputs": [
                {
                    "internalType": "address",
                    "name": "_deBridgeTokenDeployer",
                    "type": "address"
                }
            ],
            "name": "setDeBridgeTokenDeployer",
            "outputs": [],
            "stateMutability": "nonpayable",
            "type": "function"
        },
        {
            "inputs": [
                {
                    "internalType": "address",
                    "name": "_defiController",
                    "type": "address"
                }
            ],
            "name": "setDefiController",
            "outputs": [],
            "stateMutability": "nonpayable",
            "type": "function"
        },
        {
            "inputs": [
                {
                    "internalType": "address",
                    "name": "_value",
                    "type": "address"
                }
            ],
            "name": "setFeeContractUpdater",
            "outputs": [],
            "stateMutability": "nonpayable",
            "type": "function"
        },
        {
            "inputs": [
                {
                    "internalType": "address",
                    "name": "_feeProxy",
                    "type": "address"
                }
            ],
            "name": "setFeeProxy",
            "outputs": [],
            "stateMutability": "nonpayable",
            "type": "function"
        },
        {
            "inputs": [
                {
                    "internalType": "address",
                    "name": "_verifier",
                    "type": "address"
                }
            ],
            "name": "setSignatureVerifier",
            "outputs": [],
            "stateMutability": "nonpayable",
            "type": "function"
        },
        {
            "inputs": [
                {
                    "internalType": "contract IWethGate",
                    "name": "_wethGate",
                    "type": "address"
                }
            ],
            "name": "setWethGate",
            "outputs": [],
            "stateMutability": "nonpayable",
            "type": "function"
        },
        {
            "inputs": [],
            "name": "signatureVerifier",
            "outputs": [
                {
                    "internalType": "address",
                    "name": "",
                    "type": "address"
                }
            ],
            "stateMutability": "view",
            "type": "function"
        },
        {
            "inputs": [
                {
                    "internalType": "bytes4",
                    "name": "interfaceId",
                    "type": "bytes4"
                }
            ],
            "name": "supportsInterface",
            "outputs": [
                {
                    "internalType": "bool",
                    "name": "",
                    "type": "bool"
                }
            ],
            "stateMutability": "view",
            "type": "function"
        },
        {
            "inputs": [],
            "name": "token",
            "outputs": [
                {
                    "internalType": "contract IDeBridgeToken",
                    "name": "",
                    "type": "address"
                }
            ],
            "stateMutability": "view",
            "type": "function"
        },
        {
            "inputs": [],
            "name": "unpause",
            "outputs": [],
            "stateMutability": "nonpayable",
            "type": "function"
        },
        {
            "inputs": [
                {
                    "internalType": "bytes32",
                    "name": "_debridgeId",
                    "type": "bytes32"
                },
                {
                    "internalType": "uint256",
                    "name": "_maxAmount",
                    "type": "uint256"
                },
                {
                    "internalType": "uint16",
                    "name": "_minReservesBps",
                    "type": "uint16"
                },
                {
                    "internalType": "uint256",
                    "name": "_amountThreshold",
                    "type": "uint256"
                }
            ],
            "name": "updateAsset",
            "outputs": [],
            "stateMutability": "nonpayable",
            "type": "function"
        },
        {
            "inputs": [
                {
                    "internalType": "bytes32",
                    "name": "_debridgeId",
                    "type": "bytes32"
                },
                {
                    "internalType": "uint256[]",
                    "name": "_supportedChainIds",
                    "type": "uint256[]"
                },
                {
                    "internalType": "uint256[]",
                    "name": "_assetFeesInfo",
                    "type": "uint256[]"
                }
            ],
            "name": "updateAssetFixedFees",
            "outputs": [],
            "stateMutability": "nonpayable",
            "type": "function"
        },
        {
            "inputs": [
                {
                    "internalType": "uint256[]",
                    "name": "_chainIds",
                    "type": "uint256[]"
                },
                {
                    "components": [
                        {
                            "internalType": "uint256",
                            "name": "fixedNativeFee",
                            "type": "uint256"
                        },
                        {
                            "internalType": "bool",
                            "name": "isSupported",
                            "type": "bool"
                        },
                        {
                            "internalType": "uint16",
                            "name": "transferFeeBps",
                            "type": "uint16"
                        }
                    ],
                    "internalType": "struct IDeBridgeGate.ChainSupportInfo[]",
                    "name": "_chainSupportInfo",
                    "type": "tuple[]"
                },
                {
                    "internalType": "bool",
                    "name": "_isChainFrom",
                    "type": "bool"
                }
            ],
            "name": "updateChainSupport",
            "outputs": [],
            "stateMutability": "nonpayable",
            "type": "function"
        },
        {
            "inputs": [
                {
                    "internalType": "uint8",
                    "name": "_excessConfirmations",
                    "type": "uint8"
                }
            ],
            "name": "updateExcessConfirmations",
            "outputs": [],
            "stateMutability": "nonpayable",
            "type": "function"
        },
        {
            "inputs": [
                {
                    "internalType": "address",
                    "name": "_address",
                    "type": "address"
                },
                {
                    "internalType": "uint16",
                    "name": "_discountFixBps",
                    "type": "uint16"
                },
                {
                    "internalType": "uint16",
                    "name": "_discountTransferBps",
                    "type": "uint16"
                }
            ],
            "name": "updateFeeDiscount",
            "outputs": [],
            "stateMutability": "nonpayable",
            "type": "function"
        },
        {
            "inputs": [
                {
                    "internalType": "uint256",
                    "name": "_flashFeeBps",
                    "type": "uint256"
                }
            ],
            "name": "updateFlashFee",
            "outputs": [],
            "stateMutability": "nonpayable",
            "type": "function"
        },
        {
            "inputs": [
                {
                    "internalType": "uint256",
                    "name": "_globalFixedNativeFee",
                    "type": "uint256"
                },
                {
                    "internalType": "uint16",
                    "name": "_globalTransferFeeBps",
                    "type": "uint16"
                }
            ],
            "name": "updateGlobalFee",
            "outputs": [],
            "stateMutability": "nonpayable",
            "type": "function"
        },
        {
            "inputs": [],
            "name": "version",
            "outputs": [
                {
                    "internalType": "uint256",
                    "name": "",
                    "type": "uint256"
                }
            ],
            "stateMutability": "pure",
            "type": "function"
        },
        {
            "inputs": [],
            "name": "weth",
            "outputs": [
                {
                    "internalType": "contract IWETH",
                    "name": "",
                    "type": "address"
                }
            ],
            "stateMutability": "view",
            "type": "function"
        },
        {
            "inputs": [],
            "name": "wethGate",
            "outputs": [
                {
                    "internalType": "contract IWethGate",
                    "name": "",
                    "type": "address"
                }
            ],
            "stateMutability": "view",
            "type": "function"
        },
        {
            "inputs": [
                {
                    "internalType": "bytes32",
                    "name": "_debridgeId",
                    "type": "bytes32"
                }
            ],
            "name": "withdrawFee",
            "outputs": [],
            "stateMutability": "nonpayable",
            "type": "function"
        },
        {
            "stateMutability": "payable",
            "type": "receive"
        }
    ],
    "bytecode": "0x608060405234801561001057600080fd5b506154f2806100206000396000f3fe60806040526004361061041f5760003560e01c806391d148541161021e578063c1efe77d11610123578063dc1995e9116100ab578063e836a7a91161007a578063e836a7a914610e34578063ee81fb9714610e62578063f449063314610e79578063fc0c546a14610e99578063fde919f614610eba57600080fd5b8063dc1995e914610dbe578063e08a660514610dde578063e0d3f02914610dfe578063e1a4521814610e1e57600080fd5b8063d19c3dd8116100f2578063d19c3dd814610d0a578063d547741f14610d2a578063d6b531aa14610d4a578063d7457c0314610d6a578063da61505214610d8a57600080fd5b8063c1efe77d14610c4a578063c41449eb14610c8d578063c432e3ff14610cad578063cb33764a14610ccd57600080fd5b8063affed0e0116101a6578063ba9f777611610175578063ba9f777614610bb6578063bd2608fa14610bd7578063bdbc91ab14610bf7578063be29747614610c17578063be7f218414610c2a57600080fd5b8063affed0e014610af6578063b242e7cf14610b0c578063b3b25f9514610b63578063b9b5565214610b8357600080fd5b80639682b909116101ed5780639682b90914610a28578063970a117c14610a485780639a8c3a0f14610a69578063a217fddf14610ab3578063a4d69f3614610ac857600080fd5b806391d14854146109a2578063932fb34b146109c2578063960396ae146109f357806396341ea714610a0857600080fd5b806346144c8f1161032457806365ac9f78116102ac5780637f4de21c1161027b5780637f4de21c146109065780638456cb591461092d578063889d71a214610942578063895f0c6a146109625780638ffcc54f1461098257600080fd5b806365ac9f781461083d57806366dfd4891461086e5780636b063d65146108845780637796656c146108a457600080fd5b806354fd4d50116102f357806354fd4d501461070f578063551156d61461072457806357cf07ca146107445780635c837198146107f65780635c975abb1461082557600080fd5b806346144c8f146106995780634665a2f4146106ba5780634a77d3b6146106da5780635187599d146106ef57600080fd5b80632f2ff15d116103a757806335f4312a1161037657806335f4312a1461060357806336568abe146106235780633c56e07e146106435780633f4ba83a146106635780633fc8cef31461067857600080fd5b80632f2ff15d1461059957806331bf10c1146105b95780633408e470146105d957806335087f0a146105ec57600080fd5b8063248a9ca3116103ee578063248a9ca3146104c257806325be0be11461050057806326c09e94146105205780632b0d0a8b146105405780632da688ac1461056057600080fd5b806301ffc9a71461042b578063106f432f1461046057806311b6e6b41461048257806315a4587a146104a257600080fd5b3661042657005b600080fd5b34801561043757600080fd5b5061044b610446366004614974565b610eda565b60405190151581526020015b60405180910390f35b34801561046c57600080fd5b5061048061047b3660046142e8565b610f11565b005b34801561048e57600080fd5b5061048061049d36600461469b565b610f5c565b3480156104ae57600080fd5b506104806104bd36600461457d565b610fac565b3480156104ce57600080fd5b506104f26104dd36600461469b565b60009081526065602052604090206001015490565b604051908152602001610457565b34801561050c57600080fd5b5061048061051b3660046142e8565b6111be565b34801561052c57600080fd5b5061048061053b36600461469b565b611209565b34801561054c57600080fd5b5061048061055b3660046142e8565b611362565b34801561056c57600080fd5b5061010a54610581906001600160a01b031681565b6040516001600160a01b039091168152602001610457565b3480156105a557600080fd5b506104806105b43660046146b4565b6113e0565b3480156105c557600080fd5b506104806105d4366004614b54565b61140b565b3480156105e557600080fd5b50466104f2565b3480156105f857600080fd5b506104f261010d5481565b34801561060f57600080fd5b5061048061061e36600461482e565b6114c2565b34801561062f57600080fd5b5061048061063e3660046146b4565b6115b5565b34801561064f57600080fd5b506104f261065e3660046148ea565b611633565b34801561066f57600080fd5b506104806116f8565b34801561068457600080fd5b5061010b54610581906001600160a01b031681565b3480156106a557600080fd5b5061010854610581906001600160a01b031681565b3480156106c657600080fd5b506104806106d5366004614c08565b61172a565b3480156106e657600080fd5b506104f2600281565b3480156106fb57600080fd5b5061048061070a366004614c42565b611793565b34801561071b57600080fd5b5061012d6104f2565b34801561073057600080fd5b5061048061073f3660046147f1565b611847565b34801561075057600080fd5b506107b261075f36600461469b565b60ff602081905260009182526040909120805460018201546002830154600384015460049094015492949193909290916001600160a01b0382169161ffff600160a01b82041691600160b01b9091041687565b6040805197885260208801969096529486019390935260608501919091526001600160a01b0316608084015261ffff1660a0830152151560c082015260e001610457565b34801561080257600080fd5b5061010e546108129061ffff1681565b60405161ffff9091168152602001610457565b34801561083157600080fd5b5060975460ff1661044b565b34801561084957600080fd5b5061044b61085836600461469b565b6101016020526000908152604090205460ff1681565b34801561087a57600080fd5b506104f260fd5481565b34801561089057600080fd5b5061048061089f3660046143d2565b6118de565b3480156108b057600080fd5b506108e76108bf36600461469b565b610104602052600090815260409020805460019091015460ff811690610100900461ffff1683565b60408051938452911515602084015261ffff1690820152606001610457565b34801561091257600080fd5b5061010e54610581906201000090046001600160a01b031681565b34801561093957600080fd5b506104806119c3565b34801561094e57600080fd5b5061048061095d3660046142e8565b611a12565b34801561096e57600080fd5b5061048061097d3660046146e4565b611a5c565b34801561098e57600080fd5b506104f261099d3660046142e8565b611b26565b3480156109ae57600080fd5b5061044b6109bd3660046146b4565b611b88565b3480156109ce57600080fd5b5061044b6109dd36600461469b565b6101026020526000908152604090205460ff1681565b3480156109ff57600080fd5b506104f2600181565b348015610a1457600080fd5b50610480610a233660046144d4565b611bb3565b348015610a3457600080fd5b506104f2610a433660046146b4565b611cee565b348015610a5457600080fd5b5061010c54610581906001600160a01b031681565b348015610a7557600080fd5b50610a9e610a8436600461469b565b610100602052600090815260409020805460019091015482565b60408051928352602083019190915201610457565b348015610abf57600080fd5b506104f2600081565b348015610ad457600080fd5b50610ae8610ae33660046142e8565b611d37565b604051610457929190615179565b348015610b0257600080fd5b506104f260fe5481565b348015610b1857600080fd5b50610b48610b273660046142e8565b6101066020526000908152604090205461ffff808216916201000090041682565b6040805161ffff938416815292909116602083015201610457565b348015610b6f57600080fd5b50610480610b7e36600461438d565b611e20565b348015610b8f57600080fd5b5060fc54610ba490600160a01b900460ff1681565b60405160ff9091168152602001610457565b348015610bc257600080fd5b5061010954610581906001600160a01b031681565b348015610be357600080fd5b50610480610bf236600461499e565b611ece565b348015610c0357600080fd5b50610480610c12366004614322565b61201e565b610480610c253660046143fe565b6122f5565b348015610c3657600080fd5b50610480610c453660046143d2565b61245f565b348015610c5657600080fd5b506108e7610c6536600461469b565b610105602052600090815260409020805460019091015460ff811690610100900461ffff1683565b348015610c9957600080fd5b50610480610ca8366004614bdc565b612610565b348015610cb957600080fd5b50610480610cc83660046142e8565b612691565b348015610cd957600080fd5b506104f2610ce83660046147cf565b6000918252610100602090815260408084209284526002909201905290205490565b348015610d1657600080fd5b506104f2610d25366004614750565b6126e4565b348015610d3657600080fd5b50610480610d453660046146b4565b612720565b348015610d5657600080fd5b50610480610d6536600461469b565b612746565b348015610d7657600080fd5b5060fb54610581906001600160a01b031681565b348015610d9657600080fd5b506104f27f2b36fa99e118fa8485d488becf749a974743fbeb6a7aa57e663893bf5d69a3c181565b348015610dca57600080fd5b50610ae8610dd93660046142e8565b6127a8565b348015610dea57600080fd5b50610480610df93660046142e8565b61284e565b348015610e0a57600080fd5b50610480610e193660046142e8565b612898565b348015610e2a57600080fd5b506104f261271081565b348015610e4057600080fd5b506104f2610e4f36600461469b565b6101036020526000908152604090205481565b348015610e6e57600080fd5b506104f261010f5481565b348015610e8557600080fd5b506104f2610e94366004614b96565b6128e3565b348015610ea557600080fd5b5061011054610581906001600160a01b031681565b348015610ec657600080fd5b5060fc54610581906001600160a01b031681565b60006001600160e01b03198216637965db0b60e01b1480610f0b57506301ffc9a760e01b6001600160e01b03198316145b92915050565b610f1c600033611b88565b610f3957604051636f4720fd60e11b815260040160405180910390fd5b61010880546001600160a01b0319166001600160a01b0392909216919091179055565b610f67600033611b88565b610f8457604051636f4720fd60e11b815260040160405180910390fd5b612710811115610fa757604051634668624160e01b815260040160405180910390fd5b60fd55565b610fb7600033611b88565b610fd457604051636f4720fd60e11b815260040160405180910390fd5b8151835114610ff657604051634668624160e01b815260040160405180910390fd5b60005b83518110156111b85781156110925782818151811061101a5761101a61545e565b602002602001015161010560008684815181106110395761103961545e565b6020908102919091018101518252818101929092526040908101600020835181559183015160019092018054939091015161ffff166101000262ffff00199215159290921662ffffff1990931692909217179055611118565b8281815181106110a4576110a461545e565b602002602001015161010460008684815181106110c3576110c361545e565b6020908102919091018101518252818101929092526040908101600020835181559183015160019092018054939091015161ffff166101000262ffff00199215159290921662ffffff19909316929092171790555b7f753df979edb610900dbec05f67411d26a90a78013a0e3a028f2fd9d3c6fd214f84828151811061114b5761114b61545e565b60200260200101518483815181106111655761116561545e565b6020908102919091018101516040805193845281518484015291810151151583830152015161ffff166060820152831515608082015260a00160405180910390a1806111b08161542d565b915050610ff9565b50505050565b6111c9600033611b88565b6111e657604051636f4720fd60e11b815260040160405180910390fd5b61010980546001600160a01b0319166001600160a01b0392909216919091179055565b600260c95414156112355760405162461bcd60e51b815260040161122c906150ec565b60405180910390fd5b600260c955610109546001600160a01b031633146112665760405163dd518cdb60e01b815260040160405180910390fd5b600081815261010060205260408120600181015481549192916112899190615398565b9050806112a95760405163c6c13aa760e01b815260040160405180910390fd5b808260010160008282546112bd919061522f565b909155506112cf9050465b6000611cee565b8314156112f257610109546112ed906001600160a01b0316826128f8565b61131f565b61010954600084815260ff602052604090206004015461131f916001600160a01b03918216911683612986565b60408051848152602081018390527fb4006a5a0c03fd761a319df109910cdb56253d60a54ffc647c070b8bad0a8ae3910160405180910390a15050600160c95550565b61136d600033611b88565b61138a57604051636f4720fd60e11b815260040160405180910390fd5b61010a80546001600160a01b0319166001600160a01b0383169081179091556040519081527fa9543b36462a5e2c2259a14d72a8bd4e2342eaf9d7c828e9fb86921b3aa3eb5f906020015b60405180910390a150565b6000828152606560205260409020600101546113fc81336129e9565b6114068383612a4d565b505050565b611416600033611b88565b61143357604051636f4720fd60e11b815260040160405180910390fd5b801561145c57600083815261010560205260409020600101805460ff191683151517905561147b565b600083815261010460205260409020600101805460ff19168315151790555b6040805184815283151560208201528215158183015290517f522cc1aea4e8d667320894993cf2dc17feb624e400eb812c41a8efbcefc3d3409181900360600190a1505050565b60975460ff16156114e55760405162461bcd60e51b815260040161122c90615074565b6115206040518060a00160405280600081526020016000815260200160006001600160a01b0316815260200160608152602001606081525090565b82156115355761153283850185614a63565b90505b60006115488c8b8d8c8c878a1515611633565b6000818152610101602052604090205490915060ff161561157c5760405163e4e5e97560e01b815260040160405180910390fd5b600081815261010160205260408120805460ff191660011790556115a5828e8c8f8f888a612ad3565b5050505050505050505050505050565b6001600160a01b03811633146116255760405162461bcd60e51b815260206004820152602f60248201527f416363657373436f6e74726f6c3a2063616e206f6e6c792072656e6f756e636560448201526e103937b632b9903337b91039b2b63360891b606482015260840161122c565b61162f8282612bd0565b5050565b6040805160016020820152808201899052606080820189905246608083015260a0820188905286901b6001600160601b03191660c082015260d48082018690528251808303909101815260f490910190915260009082156116e25783516020808601516040808801516060890151805160808b0151805194516116c4988a9890979660149695939092909101614cb8565b604051602081830303815290604052805190602001209150506116ed565b805160209091012090505b979650505050505050565b611703600033611b88565b61172057604051636f4720fd60e11b815260040160405180910390fd5b611728612c37565b565b611735600033611b88565b61175257604051636f4720fd60e11b815260040160405180910390fd5b60ff811661177357604051634668624160e01b815260040160405180910390fd5b60fc805460ff909216600160a01b0260ff60a01b19909216919091179055565b600054610100900460ff16806117ac575060005460ff16155b6117c85760405162461bcd60e51b815260040161122c9061509e565b600054610100900460ff161580156117ea576000805461ffff19166101011790555b60fc805460ff60a01b1916600160a01b60ff86160217905561010b80546001600160a01b0319166001600160a01b038416179055611829600033612cca565b611831612cd4565b8015611406576000805461ff0019169055505050565b611852600033611b88565b61186f57604051636f4720fd60e11b815260040160405180910390fd5b6127108261ffff16111561189657604051634668624160e01b815260040160405180910390fd5b600093845260ff6020908152604080862060018101959095556004909401805461ffff909416600160a01b0261ffff60a01b1990941693909317909255610103909152912055565b610108546001600160a01b0316331461190a57604051631d1dfb6d60e01b815260040160405180910390fd5b600260c954141561192d5760405162461bcd60e51b815260040161122c906150ec565b600260c955600061193f465b84611cee565b600081815260ff60208190526040909120600481015492935091600160b01b90041661197e57604051631433b3cd60e01b815260040160405180910390fd5b828160030160008282546119929190615398565b90915550506101085460048201546119b8916001600160a01b0391821691163086612d48565b5050600160c9555050565b6119ed7f2b36fa99e118fa8485d488becf749a974743fbeb6a7aa57e663893bf5d69a3c133611b88565b611a0a57604051636053780560e01b815260040160405180910390fd5b611728612d80565b611a1d600033611b88565b611a3a57604051636f4720fd60e11b815260040160405180910390fd5b60fb80546001600160a01b0319166001600160a01b0392909216919091179055565b611a67600033611b88565b611a8457604051636f4720fd60e11b815260040160405180910390fd5b8051825114611aa657604051634668624160e01b815260040160405180910390fd5b600083815261010060205260408120905b8351811015611b1f57828181518110611ad257611ad261545e565b6020026020010151826002016000868481518110611af257611af261545e565b60200260200101518152602001908152602001600020819055508080611b179061542d565b915050611ab7565b5050505050565b60008060ff81611b37465b86611cee565b81526020810191909152604001600020600481015490915061271090611b6890600160a01b900461ffff1682615398565b8260020154611b779190615379565b611b81919061526c565b9392505050565b60009182526065602090815260408084206001600160a01b0393909316845291905290205460ff1690565b611bbe600033611b88565b611bdb57604051636f4720fd60e11b815260040160405180910390fd5b60005b825181101561140657816101026000858481518110611bff57611bff61545e565b6020026020010151815260200190815260200160002060006101000a81548160ff0219169083151502179055508115611c89577f7f2b4c099f4c970e6d3b8677f8c32755ce38018a03dad58ed015c68a7e9bc791838281518110611c6557611c6561545e565b6020026020010151604051611c7c91815260200190565b60405180910390a1611cdc565b7f598eac83c515ef525efc37796beda3b069e752328e8325fb446f84e6cc7d2242838281518110611cbc57611cbc61545e565b6020026020010151604051611cd391815260200190565b60405180910390a15b80611ce68161542d565b915050611bde565b60008282604051602001611d1992919091825260601b6001600160601b031916602082015260340190565b60405160208183030381529060405280519060200120905092915050565b6000606060006101076000856001600160a01b03166001600160a01b0316815260200190815260200160002060405180604001604052908160008201548152602001600182018054611d88906153f2565b80601f0160208091040260200160405190810160405280929190818152602001828054611db4906153f2565b8015611e015780601f10611dd657610100808354040283529160200191611e01565b820191906000526020600020905b815481529060010190602001808311611de457829003601f168201915b5050505050815250509050806000015181602001519250925050915091565b611e2b600033611b88565b611e4857604051636f4720fd60e11b815260040160405180910390fd5b6001600160a01b0383161580611e6357506127108261ffff16115b80611e7357506127108161ffff16115b15611e9157604051634668624160e01b815260040160405180910390fd5b6001600160a01b03909216600090815261010660205260409020805461ffff938416620100000263ffffffff199091169390921692909217179055565b600260c9541415611ef15760405162461bcd60e51b815260040161122c906150ec565b600260c95560975460ff1615611f195760405162461bcd60e51b815260040161122c90615074565b6000611f2586886128e3565b600081815260ff6020819052604090912060040154919250600160b01b9091041615611f645760405163f0faeff560e01b815260040160405180910390fd5b6000611f72828787876126e4565b60fb54604051630743550560e01b81529192506000916001600160a01b0390911690630743550590611fae9086908b908b908b90600401614f7f565b602060405180830381600087803b158015611fc857600080fd5b505af1158015611fdc573d6000803e3d6000fd5b505050506040513d601f19601f820116820180604052508101906120009190614305565b905061200e83828b8b612dd8565b5050600160c95550505050505050565b600260c95414156120415760405162461bcd60e51b815260040161122c906150ec565b600260c95560975460ff16156120695760405162461bcd60e51b815260040161122c90615074565b600061207446611b31565b600081815260ff6020819052604090912060040154919250600160b01b909104166120b257604051631433b3cd60e01b815260040160405180910390fd5b600061271060fd54856120c59190615379565b6120cf919061526c565b6040516370a0823160e01b81523060048201529091506000906001600160a01b038816906370a082319060240160206040518083038186803b15801561211457600080fd5b505afa158015612128573d6000803e3d6000fd5b505050506040513d601f19601f8201168201806040525081019061214c9190614b3b565b90506121626001600160a01b0388168787612986565b604051635b6e007960e11b8152339063b6dc00f2906121879085908890600401615179565b600060405180830381600087803b1580156121a157600080fd5b505af11580156121b5573d6000803e3d6000fd5b50506040516370a0823160e01b8152306004820152600092506001600160a01b038a1691506370a082319060240160206040518083038186803b1580156121fb57600080fd5b505afa15801561220f573d6000803e3d6000fd5b505050506040513d601f19601f820116820180604052508101906122339190614b3b565b905080612240848461522f565b111561225f5760405163b1b335fb60e01b815260040160405180910390fd5b600061226b8383615398565b6000868152610100602052604081208054929350839290919061228f90849061522f565b909155505060408051338152602081018990529081018290526001600160a01b03808a1691908b16907f3a1e073dab8e368be1648fd9c55ea62610b7eb53f9154791282692a76b153ca19060600160405180910390a35050600160c95550505050505050565b600260c95414156123185760405162461bcd60e51b815260040161122c906150ec565b600260c95560975460ff16156123405760405162461bcd60e51b815260040161122c90615074565b6040805160a08101825260008082526020820181905291810182905260608101829052608081018290526000612379888d8d8d8b612f4d565b60408051608081018252600080825260208201526060918101829052818101919091529195509350909150841561241f576123b685870187614a97565b90506123c68d8260000151613744565b8082528c10156123e95760405163fe768a2360e01b815260040160405180910390fd5b60008160600151511180156124015750604081015151155b1561241f576040516315c1f47560e31b815260040160405180910390fd5b805161242b9083615398565b91506124378d83613744565b915061244b848c848d878c878c1515613819565b5050600160c9555050505050505050505050565b610108546001600160a01b0316331461248b57604051631d1dfb6d60e01b815260040160405180910390fd5b600260c95414156124ae5760405162461bcd60e51b815260040161122c906150ec565b600260c95560006124be46611939565b600081815260ff60208190526040909120600481015492935091600160b01b9004166124fd57604051631433b3cd60e01b815260040160405180910390fd5b600481015460028201546000916127109161252391600160a01b900461ffff1690615379565b61252d919061526c565b6040516370a0823160e01b81523060048201529091506001600160a01b038616906370a082319060240160206040518083038186803b15801561256f57600080fd5b505afa158015612583573d6000803e3d6000fd5b505050506040513d601f19601f820116820180604052508101906125a79190614b3b565b6125b1858361522f565b11156125d05760405163c6c13aa760e01b815260040160405180910390fd5b838260030160008282546125e4919061522f565b909155505061010854612604906001600160a01b03878116911686612986565b5050600160c955505050565b61261b600033611b88565b61263857604051636f4720fd60e11b815260040160405180910390fd5b61010d82905561010e805461ffff191661ffff83169081179091556040805184815260208101929092527f850cd955704b99a3588cb377341a321bc53b01073abba0af4616b0c70eb77943910160405180910390a15050565b61269c600033611b88565b6126b957604051636f4720fd60e11b815260040160405180910390fd5b61010e80546001600160a01b03909216620100000262010000600160b01b0319909216919091179055565b6000600285858585604051602001612700959493929190614e6b565b604051602081830303815290604052805190602001209050949350505050565b60008281526065602052604090206001015461273c81336129e9565b6114068383612bd0565b61010c546001600160a01b03163314612772576040516341c83f5f60e11b815260040160405180910390fd5b61010d8190556040518181527f6af65247cf743b7cb486dac49457e290bf672f3d89f71ed05d3f56d7b69c014b906020016113d5565b61010760205260009081526040902080546001820180549192916127cb906153f2565b80601f01602080910402602001604051908101604052809291908181526020018280546127f7906153f2565b80156128445780601f1061281957610100808354040283529160200191612844565b820191906000526020600020905b81548152906001019060200180831161282757829003601f168201915b5050505050905082565b612859600033611b88565b61287657604051636f4720fd60e11b815260040160405180910390fd5b60fc80546001600160a01b0319166001600160a01b0392909216919091179055565b6128a3600033611b88565b6128c057604051636f4720fd60e11b815260040160405180910390fd5b61010c80546001600160a01b0319166001600160a01b0392909216919091179055565b60008282604051602001611d19929190614f13565b604080516000808252602082019092526001600160a01b0384169083906040516129229190614c9c565b60006040518083038185875af1925050503d806000811461295f576040519150601f19603f3d011682016040523d82523d6000602084013e612964565b606091505b505090508061140657604051630db2c7f160e31b815260040160405180910390fd5b6040516001600160a01b03831660248201526044810182905261140690849063a9059cbb60e01b906064015b60408051601f198184030181529190526020810180516001600160e01b03166001600160e01b03199093169290921790915261394f565b6129f38282611b88565b61162f57612a0b816001600160a01b03166014613a21565b612a16836020613a21565b604051602001612a27929190614df6565b60408051601f198184030181529082905262461bcd60e51b825261122c91600401615061565b612a578282611b88565b61162f5760008281526065602090815260408083206001600160a01b03851684529091529020805460ff19166001179055612a8f3390565b6001600160a01b0316816001600160a01b0316837f2f8788117e7eff1d82e926ec794901d17c78024a50270940304540a733656f0d60405160405180910390a45050565b600086815260ff6020526040902080544614908115612b16578351612af8908761522f565b816002016000828254612b0b9190615398565b90915550612b3b9050565b8351612b22908761522f565b816002016000828254612b35919061522f565b90915550505b826000838015612b52575060208601516001908116145b905073852e7627aeff3ed6105f600d985cc6f74dbd66406001600160a01b038a1614612bb75760405162461bcd60e51b8152602060048201526014602482015273686572652070726f6772616d206973204f4b415960601b604482015260640161122c565b612bc2828a8a613bbc565b505050979650505050505050565b612bda8282611b88565b1561162f5760008281526065602090815260408083206001600160a01b0385168085529252808320805460ff1916905551339285917ff6391f5c32d9c69d2a47ea670b442974b53935d1edc7fd64eb21e047a839171b9190a45050565b60975460ff16612c805760405162461bcd60e51b815260206004820152601460248201527314185d5cd8589b194e881b9bdd081c185d5cd95960621b604482015260640161122c565b6097805460ff191690557f5db9ee0a495bf2e6ff9c91a7834c1ba4fdd244a5e8aa4e537bd38aeae4b073aa335b6040516001600160a01b03909116815260200160405180910390a1565b61162f8282612a4d565b600054610100900460ff1680612ced575060005460ff16155b612d095760405162461bcd60e51b815260040161122c9061509e565b600054610100900460ff16158015612d2b576000805461ffff19166101011790555b612d33613c29565b8015612d45576000805461ff00191690555b50565b6040516001600160a01b03808516602483015283166044820152606481018290526111b89085906323b872dd60e01b906084016129b2565b60975460ff1615612da35760405162461bcd60e51b815260040161122c90615074565b6097805460ff191660011790557f62e78cea01bee320cd4e420270b5ea74000d11b0c9f74754ebdbfc544b05a258612cad3390565b600084815260ff6020819052604090912060048101549091600160b01b9091041615612e175760405163f0faeff560e01b815260040160405180910390fd5b6001600160a01b038416612e3e5760405163d92e233d60e01b815260040160405180910390fd5b6004810180546001600160a01b038616600162ff000160a01b031990911617600160b01b1790558181556001810154612e7a5760001960018201555b60048101805461ffff60a01b191661027160a41b17905560008581526101036020526040902054612eba5760008581526101036020526040902060001990555b6001600160a01b03841660009081526101076020908152604090912083815584519091612eee916001840191870190614027565b50827f2fe256b895c7737f17df53e47f93d864727942c40cbfeb0098fb10b2b57da51487878786600101548760040160149054906101000a900461ffff16604051612f3d959493929190614f39565b60405180910390a2505050505050565b6040805160a08101825260008082526020820181905291810182905260608101829052608081018290528190612f8287613c99565b875115613037576000612f958982613df4565b905060008080612fa68c6020613e2b565b60405163d505accf60e01b8152336004820152306024820152604481018e90526064810188905260ff8216608482015260a4810184905260c4810183905292955090935091506001600160a01b038c169063d505accf9060e401600060405180830381600087803b15801561301a57600080fd5b505af115801561302e573d6000803e3d6000fd5b50505050505050505b60006101076000896001600160a01b03166001600160a01b0316815260200190815260200160002060405180604001604052908160008201548152602001600182018054613084906153f2565b80601f01602080910402602001604051908101604052809291908181526020018280546130b0906153f2565b80156130fd5780601f106130d2576101008083540402835291602001916130fd565b820191906000526020600020905b8154815290600101906020018083116130e057829003601f168201915b50505050508152505090506000816000015160001461311f5746825114613122565b60015b9050801561315c57613155466001600160a01b038b1615613143578a611cee565b61010b546001600160a01b0316611cee565b9350613171565b61316e826000015183602001516128e3565b93505b600084815260ff6020819052604090912060048101549091600160b01b909104166132205781156132075760006001600160a01b038b16156131b3578a6131c1565b61010b546001600160a01b03165b6040516001600160601b0319606083901b16602082015290915061320190879083906034016040516020818303038152906040526131fc4690565b612dd8565b50613220565b604051631433b3cd60e01b815260040160405180910390fd5b6000888152610104602090815260409182902082516060810184528154815260019091015460ff811615159282019290925261010090910461ffff16918101919091526001600160a01b038b166132e75734995061010b60009054906101000a90046001600160a01b03166001600160a01b031663d0e30db08b6040518263ffffffff1660e01b81526004016000604051808303818588803b1580156132c557600080fd5b505af11580156132d9573d6000803e3d6000fd5b505050505060019750613402565b6040516370a0823160e01b81523060048201528b906000906001600160a01b038316906370a082319060240160206040518083038186803b15801561332b57600080fd5b505afa15801561333f573d6000803e3d6000fd5b505050506040513d601f19601f820116820180604052508101906133639190614b3b565b905061337a6001600160a01b03831633308f612d48565b6040516370a0823160e01b815230600482015281906001600160a01b038416906370a082319060240160206040518083038186803b1580156133bb57600080fd5b505afa1580156133cf573d6000803e3d6000fd5b505050506040513d601f19601f820116820180604052508101906133f39190614b3b565b6133fd9190615398565b9b5050505b81600101548a111561342757604051635a20217760e11b815260040160405180910390fd5b3360009081526101066020908152604080832081518083018352905461ffff8082168352620100009091041681840152898452610100909252822090918a156134ff576001600160a01b038e166134925783511561348657835161348b565b61010d545b90506134c2565b5060008b8152600282016020526040902054806134c25760405163156321fb60e11b815260040160405180910390fd5b6134d0818460000151613e98565b9050808d10156134f357604051630a44071360e01b815260040160405180910390fd5b602088018190526135c3565b835160009015613510578451613515565b61010d545b9050613525818560000151613e98565b90508034101561354857604051630a44071360e01b815260040160405180910390fd5b8034111561358857336108fc61355e8334615398565b6040518115909202916000818181858888f19350505050158015613586573d6000803e3d6000fd5b505b6000613593466112c8565b600081815261010060205260408120805492935084929091906135b790849061522f565b90915550505060208901525b6000612710828f6135d49190615398565b604087015161ffff16156135ec5786604001516135f5565b61010e5461ffff165b61ffff166136039190615379565b61360d919061526c565b905061361d818560200151613e98565b9050600061362b838361522f565b9050808f101561364e57604051630a44071360e01b815260040160405180910390fd5b80846000016000828254613662919061522f565b92505081905550808f6136759190615398565b60408b0192909252508b151560608a01528d89528615801560808b0152909a5092506136bd91505057868260020160008282546136b2919061522f565b909155506137359050565b868260020160008282546136d19190615398565b9091555050600482810154604051630852cd8d60e31b81529182018990526001600160a01b0316906342966c6890602401600060405180830381600087803b15801561371c57600080fd5b505af1158015613730573d6000803e3d6000fd5b505050505b50505050955095509592505050565b6000806001600160a01b038416156137cc57836001600160a01b031663313ce5676040518163ffffffff1660e01b815260040160206040518083038186803b15801561378f57600080fd5b505afa1580156137a3573d6000803e3d6000fd5b505050506040513d601f19601f820116820180604052508101906137c79190614c25565b6137cf565b60125b60ff1690506008808211156138105760006137ea8284615398565b6137f590600a6152d1565b905080613802818761526c565b61380c9190615379565b9450505b50919392505050565b60008060018a4660fe5460405161383b949392918e918e918e91602001614eca565b604051602081830303815290604052905082156138a1578351602080860151604080880151805160608a0151805193516138849789979096959394939291601491339101614d59565b6040516020818303038152906040528051906020012091506138ab565b8051602082012091505b888a7fe315721819a1f353fe56de404206bdd896ab5edc7822f1804a8c4c2c4788174c848b8b60fe548b8d8b6138f05760405180602001604052806000815250613911565b8c6040516020016139019190615123565b6040516020818303038152906040525b33604051613926989796959493929190614fbf565b60405180910390a360fe805490600061393e8361542d565b919050555050505050505050505050565b60006139a4826040518060400160405280602081526020017f5361666545524332303a206c6f772d6c6576656c2063616c6c206661696c6564815250856001600160a01b0316613ebf9092919063ffffffff16565b80519091501561140657808060200190518101906139c2919061467e565b6114065760405162461bcd60e51b815260206004820152602a60248201527f5361666545524332303a204552433230206f7065726174696f6e20646964206e6044820152691bdd081cdd58d8d9595960b21b606482015260840161122c565b60606000613a30836002615379565b613a3b90600261522f565b6001600160401b03811115613a5257613a52615474565b6040519080825280601f01601f191660200182016040528015613a7c576020820181803683370190505b509050600360fc1b81600081518110613a9757613a9761545e565b60200101906001600160f81b031916908160001a905350600f60fb1b81600181518110613ac657613ac661545e565b60200101906001600160f81b031916908160001a9053506000613aea846002615379565b613af590600161522f565b90505b6001811115613b6d576f181899199a1a9b1b9c1cb0b131b232b360811b85600f1660108110613b2957613b2961545e565b1a60f81b828281518110613b3f57613b3f61545e565b60200101906001600160f81b031916908160001a90535060049490941c93613b66816153db565b9050613af8565b508315611b815760405162461bcd60e51b815260206004820181905260248201527f537472696e67733a20686578206c656e67746820696e73756666696369656e74604482015260640161122c565b8015611406576040516340c10f1960e01b81526001600160a01b038381166004830152602482018390528416906340c10f1990604401600060405180830381600087803b158015613c0c57600080fd5b505af1158015613c20573d6000803e3d6000fd5b50505050505050565b600054610100900460ff1680613c42575060005460ff16155b613c5e5760405162461bcd60e51b815260040161122c9061509e565b600054610100900460ff16158015613c80576000805461ffff19166101011790555b600160c9558015612d45576000805461ff001916905550565b6001600160a01b038116613caa5750565b60408051600481526024810182526020810180516001600160e01b031663313ce56760e01b17905290516000916001600160a01b03841691613cec9190614c9c565b6000604051808303816000865af19150503d8060008114613d29576040519150601f19603f3d011682016040523d82523d6000602084013e613d2e565b606091505b5050905080613d5057604051636d737eeb60e01b815260040160405180910390fd5b60408051600481526024810182526020810180516001600160e01b03166395d89b4160e01b17905290516001600160a01b03841691613d8e91614c9c565b6000604051808303816000865af19150503d8060008114613dcb576040519150601f19603f3d011682016040523d82523d6000602084013e613dd0565b606091505b5050809150508061162f57604051636d737eeb60e01b815260040160405180910390fd5b6000613e0182602061522f565b83511015613e22576040516340f0f32960e01b815260040160405180910390fd5b50016020015190565b8181016020810151604082015160419092015190919060ff16601b811015613e5b57613e58601b82615247565b90505b8060ff16601b14158015613e7357508060ff16601c14155b15613e9157604051630633a0a560e21b815260040160405180910390fd5b9250925092565b6000612710613eab61ffff841685615379565b613eb5919061526c565b611b819084615398565b6060613ece8484600085613ed6565b949350505050565b606082471015613f375760405162461bcd60e51b815260206004820152602660248201527f416464726573733a20696e73756666696369656e742062616c616e636520666f6044820152651c8818d85b1b60d21b606482015260840161122c565b843b613f855760405162461bcd60e51b815260206004820152601d60248201527f416464726573733a2063616c6c20746f206e6f6e2d636f6e7472616374000000604482015260640161122c565b600080866001600160a01b03168587604051613fa19190614c9c565b60006040518083038185875af1925050503d8060008114613fde576040519150601f19603f3d011682016040523d82523d6000602084013e613fe3565b606091505b50915091506116ed82828660608315613ffd575081611b81565b82511561400d5782518084602001fd5b8160405162461bcd60e51b815260040161122c9190615061565b828054614033906153f2565b90600052602060002090601f016020900481019282614055576000855561409b565b82601f1061406e57805160ff191683800117855561409b565b8280016001018555821561409b579182015b8281111561409b578251825591602001919060010190614080565b506140a79291506140ab565b5090565b5b808211156140a757600081556001016140ac565b80356140cb8161548a565b919050565b600082601f8301126140e157600080fd5b813560206140f66140f18361520c565b6151dc565b80838252828201915082860187848660051b890101111561411657600080fd5b60005b8581101561413557813584529284019290840190600101614119565b5090979650505050505050565b80356140cb8161549f565b60008083601f84011261415f57600080fd5b5081356001600160401b0381111561417657600080fd5b60208301915083602082850101111561418e57600080fd5b9250929050565b600082601f8301126141a657600080fd5b81356001600160401b038111156141bf576141bf615474565b6141d2601f8201601f19166020016151dc565b8181528460208386010111156141e757600080fd5b816020850160208301376000918101602001919091529392505050565b600060a0828403121561421657600080fd5b60405160a081016001600160401b03828210818311171561423957614239615474565b8160405282935084358352602085013560208401526040850135915061425e8261548a565b816040840152606085013591508082111561427857600080fd5b61428486838701614195565b6060840152608085013591508082111561429d57600080fd5b506142aa85828601614195565b6080830152505092915050565b803561ffff811681146140cb57600080fd5b803563ffffffff811681146140cb57600080fd5b80356140cb816154ad565b6000602082840312156142fa57600080fd5b8135611b818161548a565b60006020828403121561431757600080fd5b8151611b818161548a565b6000806000806080858703121561433857600080fd5b84356143438161548a565b935060208501356143538161548a565b92506040850135915060608501356001600160401b0381111561437557600080fd5b61438187828801614195565b91505092959194509250565b6000806000606084860312156143a257600080fd5b83356143ad8161548a565b92506143bb602085016142b7565b91506143c9604085016142b7565b90509250925092565b600080604083850312156143e557600080fd5b82356143f08161548a565b946020939093013593505050565b60008060008060008060008060006101008a8c03121561441d57600080fd5b6144268a6140c0565b985060208a0135975060408a0135965060608a01356001600160401b038082111561445057600080fd5b61445c8d838e01614195565b975060808c013591508082111561447257600080fd5b61447e8d838e01614195565b965061448c60a08d01614142565b955061449a60c08d016142c9565b945060e08c01359150808211156144b057600080fd5b506144bd8c828d0161414d565b915080935050809150509295985092959850929598565b600080604083850312156144e757600080fd5b82356001600160401b038111156144fd57600080fd5b8301601f8101851361450e57600080fd5b8035602061451e6140f18361520c565b80838252828201915082850189848660051b880101111561453e57600080fd5b600095505b84861015614561578035835260019590950194918301918301614543565b5095506145719050868201614142565b93505050509250929050565b6000806000606080858703121561459357600080fd5b84356001600160401b03808211156145aa57600080fd5b6145b6888389016140d0565b95506020915081870135818111156145cd57600080fd5b87019050601f810188136145e057600080fd5b80356145ee6140f18261520c565b81815283810190838501868402850186018c101561460b57600080fd5b60009450845b848110156146675787828e031215614627578586fd5b61462f615192565b82358152878301356146408161549f565b8189015260406146518482016142b7565b9082015284529286019290870190600101614611565b50508097505050505050506143c960408501614142565b60006020828403121561469057600080fd5b8151611b818161549f565b6000602082840312156146ad57600080fd5b5035919050565b600080604083850312156146c757600080fd5b8235915060208301356146d98161548a565b809150509250929050565b6000806000606084860312156146f957600080fd5b8335925060208401356001600160401b038082111561471757600080fd5b614723878388016140d0565b9350604086013591508082111561473957600080fd5b50614746868287016140d0565b9150509250925092565b6000806000806080858703121561476657600080fd5b8435935060208501356001600160401b038082111561478457600080fd5b61479088838901614195565b945060408701359150808211156147a657600080fd5b506147b387828801614195565b92505060608501356147c4816154ad565b939692955090935050565b600080604083850312156147e257600080fd5b50508035926020909101359150565b6000806000806080858703121561480757600080fd5b843593506020850135925061481e604086016142b7565b9396929550929360600135925050565b6000806000806000806000806000806101008b8d03121561484e57600080fd5b8a35995060208b0135985060408b0135975060608b013561486e8161548a565b965060808b0135955060a08b01356001600160401b038082111561489157600080fd5b61489d8e838f0161414d565b909750955060c08d01359150808211156148b657600080fd5b506148c38d828e0161414d565b90945092505060e08b01356148d78161548a565b809150509295989b9194979a5092959850565b600080600080600080600060e0888a03121561490557600080fd5b87359650602088013595506040880135945060608801356149258161548a565b93506080880135925060a08801356001600160401b0381111561494757600080fd5b6149538a828b01614204565b92505060c08801356149648161549f565b8091505092959891949750929550565b60006020828403121561498657600080fd5b81356001600160e01b031981168114611b8157600080fd5b60008060008060008060c087890312156149b757600080fd5b86356001600160401b03808211156149ce57600080fd5b6149da8a838b01614195565b97506020890135965060408901359150808211156149f757600080fd5b614a038a838b01614195565b95506060890135915080821115614a1957600080fd5b614a258a838b01614195565b9450614a3360808a016142dd565b935060a0890135915080821115614a4957600080fd5b50614a5689828a01614195565b9150509295509295509295565b600060208284031215614a7557600080fd5b81356001600160401b03811115614a8b57600080fd5b613ece84828501614204565b600060208284031215614aa957600080fd5b81356001600160401b0380821115614ac057600080fd5b9083019060808286031215614ad457600080fd5b614adc6151ba565b8235815260208301356020820152604083013582811115614afc57600080fd5b614b0887828601614195565b604083015250606083013582811115614b2057600080fd5b614b2c87828601614195565b60608301525095945050505050565b600060208284031215614b4d57600080fd5b5051919050565b600080600060608486031215614b6957600080fd5b833592506020840135614b7b8161549f565b91506040840135614b8b8161549f565b809150509250925092565b60008060408385031215614ba957600080fd5b8235915060208301356001600160401b03811115614bc657600080fd5b614bd285828601614195565b9150509250929050565b60008060408385031215614bef57600080fd5b82359150614bff602084016142b7565b90509250929050565b600060208284031215614c1a57600080fd5b8135611b81816154ad565b600060208284031215614c3757600080fd5b8151611b81816154ad565b60008060408385031215614c5557600080fd5b8235614c60816154ad565b915060208301356146d98161548a565b60008151808452614c888160208601602086016153af565b601f01601f19169290920160200192915050565b60008251614cae8184602087016153af565b9190910192915050565b60008a51614cca818460208f016153af565b80830190508a815289602082015263ffffffff60e01b808a60e01b1660408301526bffffffffffffffffffffffff198960601b166044830152808860e01b1660588301528651614d2181605c850160208b016153af565b808301925050808660e01b16605c830152508351614d468160608401602088016153af565b016060019b9a5050505050505050505050565b60008a51614d6b818460208f016153af565b80830190508a815289602082015263ffffffff60e01b808a60e01b1660408301528851614d9f816044850160208d016153af565b808301925050808860e01b1660448301528651614dc3816048850160208b016153af565b60e09690961b169401604881019490945250506001600160601b0319606091821b16604c83015201979650505050505050565b7f416363657373436f6e74726f6c3a206163636f756e7420000000000000000000815260008351614e2e8160178501602088016153af565b7001034b99036b4b9b9b4b733903937b6329607d1b6017918401918201528351614e5f8160288401602088016153af565b01602801949350505050565b85815284602082015260008451614e898160408501602089016153af565b845190830190614ea08160408401602089016153af565b60f89490941b6001600160f81b031916604091909401908101939093525050604101949350505050565b87815286602082015285604082015284606082015283608082015260008351614efa8160a08501602088016153af565b60a092019182019290925260c001979650505050505050565b82815260008251614f2b8160208501602087016153af565b919091016020019392505050565b8581526001600160a01b038516602082015260a060408201819052600090614f6390830186614c70565b905083606083015261ffff831660808301529695505050505050565b848152608060208201526000614f986080830186614c70565b8281036040840152614faa8186614c70565b91505060ff8316606083015295945050505050565b60006101808a8352896020840152806040840152614fdf8184018a614c70565b905087606084015263ffffffff87166080840152855160a0840152602086015160c0840152604086015160e0840152606086015115156101008401526080860151151561012084015282810361014084015261503b8186614c70565b9150506150546101608301846001600160a01b03169052565b9998505050505050505050565b602081526000611b816020830184614c70565b60208082526010908201526f14185d5cd8589b194e881c185d5cd95960821b604082015260600190565b6020808252602e908201527f496e697469616c697a61626c653a20636f6e747261637420697320616c72656160408201526d191e481a5b9a5d1a585b1a5e995960921b606082015260800190565b6020808252601f908201527f5265656e7472616e637947756172643a207265656e7472616e742063616c6c00604082015260600190565b602081528151602082015260208201516040820152600060408301516080606084015261515360a0840182614c70565b90506060840151601f198483030160808501526151708282614c70565b95945050505050565b828152604060208201526000613ece6040830184614c70565b604051606081016001600160401b03811182821017156151b4576151b4615474565b60405290565b604051608081016001600160401b03811182821017156151b4576151b4615474565b604051601f8201601f191681016001600160401b038111828210171561520457615204615474565b604052919050565b60006001600160401b0382111561522557615225615474565b5060051b60200190565b6000821982111561524257615242615448565b500190565b600060ff821660ff84168060ff0382111561526457615264615448565b019392505050565b60008261528957634e487b7160e01b600052601260045260246000fd5b500490565b600181815b808511156152c95781600019048211156152af576152af615448565b808516156152bc57918102915b93841c9390800290615293565b509250929050565b6000611b8183836000826152e757506001610f0b565b816152f457506000610f0b565b816001811461530a576002811461531457615330565b6001915050610f0b565b60ff84111561532557615325615448565b50506001821b610f0b565b5060208310610133831016604e8410600b8410161715615353575081810a610f0b565b61535d838361528e565b806000190482111561537157615371615448565b029392505050565b600081600019048311821515161561539357615393615448565b500290565b6000828210156153aa576153aa615448565b500390565b60005b838110156153ca5781810151838201526020016153b2565b838111156111b85750506000910152565b6000816153ea576153ea615448565b506000190190565b600181811c9082168061540657607f821691505b6020821081141561542757634e487b7160e01b600052602260045260246000fd5b50919050565b600060001982141561544157615441615448565b5060010190565b634e487b7160e01b600052601160045260246000fd5b634e487b7160e01b600052603260045260246000fd5b634e487b7160e01b600052604160045260246000fd5b6001600160a01b0381168114612d4557600080fd5b8015158114612d4557600080fd5b60ff81168114612d4557600080fdfea264697066735822122004e0fc027a3e594aea0737d4dcd32c442a433f78d18e144e58eb0fc55828db3564736f6c63430008070033",
    "linkReferences": {},
    "deployedLinkReferences": {}
}