{
    "_format": "hh-sol-artifact-1",
    "contractName": "DeBridgeTokenDeployer",
    "sourceName": "contracts/transfers/DeBridgeTokenDeployer.sol",
    "abi": [
        {
            "inputs": [],
            "name": "AdminBadRole",
            "type": "error"
        },
        {
            "inputs": [],
            "name": "DeBridgeGateBadRole",
            "type": "error"
        },
        {
            "inputs": [],
            "name": "DeployedAlready",
            "type": "error"
        },
        {
            "inputs": [],
            "name": "WrongArgument",
            "type": "error"
        },
        {
            "anonymous": false,
            "inputs": [
                {
                    "indexed": false,
                    "internalType": "address",
                    "name": "asset",
                    "type": "address"
                },
                {
                    "indexed": false,
                    "internalType": "string",
                    "name": "name",
                    "type": "string"
                },
                {
                    "indexed": false,
                    "internalType": "string",
                    "name": "symbol",
                    "type": "string"
                },
                {
                    "indexed": false,
                    "internalType": "uint8",
                    "name": "decimals",
                    "type": "uint8"
                }
            ],
            "name": "DeBridgeTokenDeployed",
            "type": "event"
        },
        {
            "anonymous": false,
            "inputs": [
                {
                    "indexed": true,
                    "internalType": "bytes32",
                    "name": "role",
                    "type": "bytes32"
                },
                {
                    "indexed": true,
                    "internalType": "bytes32",
                    "name": "previousAdminRole",
                    "type": "bytes32"
                },
                {
                    "indexed": true,
                    "internalType": "bytes32",
                    "name": "newAdminRole",
                    "type": "bytes32"
                }
            ],
            "name": "RoleAdminChanged",
            "type": "event"
        },
        {
            "anonymous": false,
            "inputs": [
                {
                    "indexed": true,
                    "internalType": "bytes32",
                    "name": "role",
                    "type": "bytes32"
                },
                {
                    "indexed": true,
                    "internalType": "address",
                    "name": "account",
                    "type": "address"
                },
                {
                    "indexed": true,
                    "internalType": "address",
                    "name": "sender",
                    "type": "address"
                }
            ],
            "name": "RoleGranted",
            "type": "event"
        },
        {
            "anonymous": false,
            "inputs": [
                {
                    "indexed": true,
                    "internalType": "bytes32",
                    "name": "role",
                    "type": "bytes32"
                },
                {
                    "indexed": true,
                    "internalType": "address",
                    "name": "account",
                    "type": "address"
                },
                {
                    "indexed": true,
                    "internalType": "address",
                    "name": "sender",
                    "type": "address"
                }
            ],
            "name": "RoleRevoked",
            "type": "event"
        },
        {
            "inputs": [],
            "name": "DEFAULT_ADMIN_ROLE",
            "outputs": [
                {
                    "internalType": "bytes32",
                    "name": "",
                    "type": "bytes32"
                }
            ],
            "stateMutability": "view",
            "type": "function"
        },
        {
            "inputs": [],
            "name": "deBridgeTokenAdmin",
            "outputs": [
                {
                    "internalType": "address",
                    "name": "",
                    "type": "address"
                }
            ],
            "stateMutability": "view",
            "type": "function"
        },
        {
            "inputs": [],
            "name": "debridgeAddress",
            "outputs": [
                {
                    "internalType": "address",
                    "name": "",
                    "type": "address"
                }
            ],
            "stateMutability": "view",
            "type": "function"
        },
        {
            "inputs": [
                {
                    "internalType": "bytes32",
                    "name": "_debridgeId",
                    "type": "bytes32"
                },
                {
                    "internalType": "string",
                    "name": "_name",
                    "type": "string"
                },
                {
                    "internalType": "string",
                    "name": "_symbol",
                    "type": "string"
                },
                {
                    "internalType": "uint8",
                    "name": "_decimals",
                    "type": "uint8"
                }
            ],
            "name": "deployAsset",
            "outputs": [
                {
                    "internalType": "address",
                    "name": "deBridgeTokenAddress",
                    "type": "address"
                }
            ],
            "stateMutability": "nonpayable",
            "type": "function"
        },
        {
            "inputs": [
                {
                    "internalType": "bytes32",
                    "name": "",
                    "type": "bytes32"
                }
            ],
            "name": "getDeployedAssetAddress",
            "outputs": [
                {
                    "internalType": "address",
                    "name": "",
                    "type": "address"
                }
            ],
            "stateMutability": "view",
            "type": "function"
        },
        {
            "inputs": [
                {
                    "internalType": "bytes32",
                    "name": "role",
                    "type": "bytes32"
                }
            ],
            "name": "getRoleAdmin",
            "outputs": [
                {
                    "internalType": "bytes32",
                    "name": "",
                    "type": "bytes32"
                }
            ],
            "stateMutability": "view",
            "type": "function"
        },
        {
            "inputs": [
                {
                    "internalType": "bytes32",
                    "name": "role",
                    "type": "bytes32"
                },
                {
                    "internalType": "address",
                    "name": "account",
                    "type": "address"
                }
            ],
            "name": "grantRole",
            "outputs": [],
            "stateMutability": "nonpayable",
            "type": "function"
        },
        {
            "inputs": [
                {
                    "internalType": "bytes32",
                    "name": "role",
                    "type": "bytes32"
                },
                {
                    "internalType": "address",
                    "name": "account",
                    "type": "address"
                }
            ],
            "name": "hasRole",
            "outputs": [
                {
                    "internalType": "bool",
                    "name": "",
                    "type": "bool"
                }
            ],
            "stateMutability": "view",
            "type": "function"
        },
        {
            "inputs": [],
            "name": "implementation",
            "outputs": [
                {
                    "internalType": "address",
                    "name": "",
                    "type": "address"
                }
            ],
            "stateMutability": "view",
            "type": "function"
        },
        {
            "inputs": [
                {
                    "internalType": "address",
                    "name": "_tokenImplementation",
                    "type": "address"
                },
                {
                    "internalType": "address",
                    "name": "_deBridgeTokenAdmin",
                    "type": "address"
                },
                {
                    "internalType": "address",
                    "name": "_debridgeAddress",
                    "type": "address"
                }
            ],
            "name": "initialize",
            "outputs": [],
            "stateMutability": "nonpayable",
            "type": "function"
        },
        {
            "inputs": [
                {
                    "internalType": "bytes32",
                    "name": "",
                    "type": "bytes32"
                }
            ],
            "name": "overridedTokens",
            "outputs": [
                {
                    "internalType": "bool",
                    "name": "accept",
                    "type": "bool"
                },
                {
                    "internalType": "string",
                    "name": "name",
                    "type": "string"
                },
                {
                    "internalType": "string",
                    "name": "symbol",
                    "type": "string"
                }
            ],
            "stateMutability": "view",
            "type": "function"
        },
        {
            "inputs": [
                {
                    "internalType": "bytes32",
                    "name": "role",
                    "type": "bytes32"
                },
                {
                    "internalType": "address",
                    "name": "account",
                    "type": "address"
                }
            ],
            "name": "renounceRole",
            "outputs": [],
            "stateMutability": "nonpayable",
            "type": "function"
        },
        {
            "inputs": [
                {
                    "internalType": "bytes32",
                    "name": "role",
                    "type": "bytes32"
                },
                {
                    "internalType": "address",
                    "name": "account",
                    "type": "address"
                }
            ],
            "name": "revokeRole",
            "outputs": [],
            "stateMutability": "nonpayable",
            "type": "function"
        },
        {
            "inputs": [
                {
                    "internalType": "address",
                    "name": "_deBridgeTokenAdmin",
                    "type": "address"
                }
            ],
            "name": "setDeBridgeTokenAdmin",
            "outputs": [],
            "stateMutability": "nonpayable",
            "type": "function"
        },
        {
            "inputs": [
                {
                    "internalType": "address",
                    "name": "_debridgeAddress",
                    "type": "address"
                }
            ],
            "name": "setDebridgeAddress",
            "outputs": [],
            "stateMutability": "nonpayable",
            "type": "function"
        },
        {
            "inputs": [
                {
                    "internalType": "bytes32[]",
                    "name": "_debridgeIds",
                    "type": "bytes32[]"
                },
                {
                    "components": [
                        {
                            "internalType": "bool",
                            "name": "accept",
                            "type": "bool"
                        },
                        {
                            "internalType": "string",
                            "name": "name",
                            "type": "string"
                        },
                        {
                            "internalType": "string",
                            "name": "symbol",
                            "type": "string"
                        }
                    ],
                    "internalType": "struct DeBridgeTokenDeployer.OverridedTokenInfo[]",
                    "name": "_tokens",
                    "type": "tuple[]"
                }
            ],
            "name": "setOverridedTokenInfo",
            "outputs": [],
            "stateMutability": "nonpayable",
            "type": "function"
        },
        {
            "inputs": [
                {
                    "internalType": "address",
                    "name": "_impl",
                    "type": "address"
                }
            ],
            "name": "setTokenImplementation",
            "outputs": [],
            "stateMutability": "nonpayable",
            "type": "function"
        },
        {
            "inputs": [
                {
                    "internalType": "bytes4",
                    "name": "interfaceId",
                    "type": "bytes4"
                }
            ],
            "name": "supportsInterface",
            "outputs": [
                {
                    "internalType": "bool",
                    "name": "",
                    "type": "bool"
                }
            ],
            "stateMutability": "view",
            "type": "function"
        },
        {
            "inputs": [],
            "name": "tokenImplementation",
            "outputs": [
                {
                    "internalType": "address",
                    "name": "",
                    "type": "address"
                }
            ],
            "stateMutability": "view",
            "type": "function"
        },
        {
            "inputs": [],
            "name": "version",
            "outputs": [
                {
                    "internalType": "uint256",
                    "name": "",
                    "type": "uint256"
                }
            ],
            "stateMutability": "pure",
            "type": "function"
        }
    ],
    "bytecode": "0x608060405234801561001057600080fd5b5061226c806100206000396000f3fe60806040523480156200001157600080fd5b5060043610620001455760003560e01c806354fd4d5011620000bb578063a3688cfd116200007a578063a3688cfd14620002f2578063b50492261462000306578063c0c53b8b146200031d578063c4e733771462000334578063d547741f146200034857600080fd5b806354fd4d5014620002a15780635c60da1b14620002a957806388282e2a14620002bb57806391d1485414620002d2578063a217fddf14620002e957600080fd5b8063283eb1281162000108578063283eb12814620002205780632f2ff15d14620002375780632f3a3d5d146200024e5780632fbd13cd146200026257806336568abe146200028a57600080fd5b806301ffc9a7146200014a57806307435505146200017657806319c0bb2a14620001a65780631bb312dd14620001d2578063248a9ca314620001eb575b600080fd5b620001616200015b36600462001463565b6200035f565b60405190151581526020015b60405180910390f35b6200018d62000187366004620013d5565b62000397565b6040516001600160a01b0390911681526020016200016d565b6200018d620001b73660046200138c565b609a602052600090815260409020546001600160a01b031681565b620001e9620001e3366004620012c0565b62000700565b005b62000211620001fc3660046200138c565b60009081526065602052604090206001015490565b6040519081526020016200016d565b620001e96200023136600462001258565b62000813565b620001e962000248366004620013a6565b62000888565b6097546200018d906001600160a01b031681565b62000279620002733660046200138c565b620008b2565b6040516200016d93929190620015e6565b620001e96200029b366004620013a6565b620009f9565b606e62000211565b6097546001600160a01b03166200018d565b620001e9620002cc36600462001258565b62000a7f565b62000161620002e3366004620013a6565b62000af4565b62000211600081565b6098546200018d906001600160a01b031681565b620001e96200031736600462001258565b62000b1f565b620001e96200032e36600462001276565b62000b94565b6099546200018d906001600160a01b031681565b620001e962000359366004620013a6565b62000c99565b60006001600160e01b03198216637965db0b60e01b14806200039157506301ffc9a760e01b6001600160e01b03198316145b92915050565b6000848152609a60205260408120546001600160a01b031615620003ce57604051639891136560e01b815260040160405180910390fd5b6000858152609b60209081526040808320815160608101909252805460ff161515825260018101805492939192918401916200040a90620017d1565b80601f01602080910402602001604051908101604052809291908181526020018280546200043890620017d1565b8015620004895780601f106200045d5761010080835404028352916020019162000489565b820191906000526020600020905b8154815290600101906020018083116200046b57829003601f168201915b50505050508152602001600282018054620004a490620017d1565b80601f0160208091040260200160405190810160405280929190818152602001828054620004d290620017d1565b8015620005235780601f10620004f75761010080835404028352916020019162000523565b820191906000526020600020905b8154815290600101906020018083116200050557829003601f168201915b5050505050815250509050806000015115620005485780602001519450806040015193505b60408051600180825281830190925260009160208083019080368337505060995482519293506001600160a01b0316918391506000906200058d576200058d62001842565b6001600160a01b03928316602091820292909201015260985460405160009263151c694160e21b92620005ce928b928b928b92911690889060240162001636565b60408051601f19818403018152918152602080830180516001600160e01b03166001600160e01b031990951694909417909352519092506000916200061891309185910162001569565b60405160208183030381529060405290506000604051806020016200063d9062000ff3565b601f1982820381018352601f9091011660408190526200066391908490602001620014bd565b6040516020818303038152906040529050898151602083016000f59550853b6200068c57600080fd5b60008a8152609a60205260409081902080546001600160a01b0319166001600160a01b038916179055517faf7c48bbcdb80f8cc3f61b9bc3b914e6581b61c6129d34612fe4bd28e4858d2e90620006eb9088908c908c908c9062001597565b60405180910390a15050505050949350505050565b6200070d60003362000af4565b6200072b57604051636f4720fd60e11b815260040160405180910390fd5b80518251146200074e57604051634668624160e01b815260040160405180910390fd5b60005b82518110156200080e5781818151811062000770576200077062001842565b6020026020010151609b600085848151811062000791576200079162001842565b6020908102919091018101518252818101929092526040016000208251815460ff19169015151781558282015180519192620007d69260018501929091019062001001565b5060408201518051620007f491600284019160209091019062001001565b50905050808062000805906200180e565b91505062000751565b505050565b6200082060003362000af4565b6200083e57604051636f4720fd60e11b815260040160405180910390fd5b6001600160a01b0381166200086657604051634668624160e01b815260040160405180910390fd5b609880546001600160a01b0319166001600160a01b0392909216919091179055565b600082815260656020526040902060010154620008a6813362000cc3565b6200080e838362000d32565b609b602052600090815260409020805460018201805460ff9092169291620008da90620017d1565b80601f01602080910402602001604051908101604052809291908181526020018280546200090890620017d1565b8015620009595780601f106200092d5761010080835404028352916020019162000959565b820191906000526020600020905b8154815290600101906020018083116200093b57829003601f168201915b5050505050908060020180546200097090620017d1565b80601f01602080910402602001604051908101604052809291908181526020018280546200099e90620017d1565b8015620009ef5780601f10620009c357610100808354040283529160200191620009ef565b820191906000526020600020905b815481529060010190602001808311620009d157829003601f168201915b5050505050905083565b6001600160a01b038116331462000a6f5760405162461bcd60e51b815260206004820152602f60248201527f416363657373436f6e74726f6c3a2063616e206f6e6c792072656e6f756e636560448201526e103937b632b9903337b91039b2b63360891b60648201526084015b60405180910390fd5b62000a7b828262000dbc565b5050565b62000a8c60003362000af4565b62000aaa57604051636f4720fd60e11b815260040160405180910390fd5b6001600160a01b03811662000ad257604051634668624160e01b815260040160405180910390fd5b609780546001600160a01b0319166001600160a01b0392909216919091179055565b60009182526065602090815260408084206001600160a01b0393909316845291905290205460ff1690565b62000b2c60003362000af4565b62000b4a57604051636f4720fd60e11b815260040160405180910390fd5b6001600160a01b03811662000b7257604051634668624160e01b815260040160405180910390fd5b609980546001600160a01b0319166001600160a01b0392909216919091179055565b600054610100900460ff168062000bae575060005460ff16155b62000c135760405162461bcd60e51b815260206004820152602e60248201527f496e697469616c697a61626c653a20636f6e747261637420697320616c72656160448201526d191e481a5b9a5d1a585b1a5e995960921b606482015260840162000a66565b600054610100900460ff1615801562000c36576000805461ffff19166101011790555b609780546001600160a01b038087166001600160a01b03199283161790925560988054868416908316179055609980549285169290911691909117905562000c8060003362000e26565b801562000c93576000805461ff00191690555b50505050565b60008281526065602052604090206001015462000cb7813362000cc3565b6200080e838362000dbc565b62000ccf828262000af4565b62000a7b5762000cea816001600160a01b0316601462000e32565b62000cf783602062000e32565b60405160200162000d0a929190620014f0565b60408051601f198184030181529082905262461bcd60e51b825262000a669160040162001621565b62000d3e828262000af4565b62000a7b5760008281526065602090815260408083206001600160a01b03851684529091529020805460ff1916600117905562000d783390565b6001600160a01b0316816001600160a01b0316837f2f8788117e7eff1d82e926ec794901d17c78024a50270940304540a733656f0d60405160405180910390a45050565b62000dc8828262000af4565b1562000a7b5760008281526065602090815260408083206001600160a01b0385168085529252808320805460ff1916905551339285917ff6391f5c32d9c69d2a47ea670b442974b53935d1edc7fd64eb21e047a839171b9190a45050565b62000a7b828262000d32565b6060600062000e4383600262001766565b62000e509060026200174b565b67ffffffffffffffff81111562000e6b5762000e6b62001858565b6040519080825280601f01601f19166020018201604052801562000e96576020820181803683370190505b509050600360fc1b8160008151811062000eb45762000eb462001842565b60200101906001600160f81b031916908160001a905350600f60fb1b8160018151811062000ee65762000ee662001842565b60200101906001600160f81b031916908160001a905350600062000f0c84600262001766565b62000f199060016200174b565b90505b600181111562000f9b576f181899199a1a9b1b9c1cb0b131b232b360811b85600f166010811062000f515762000f5162001842565b1a60f81b82828151811062000f6a5762000f6a62001842565b60200101906001600160f81b031916908160001a90535060049490941c9362000f9381620017b7565b905062000f1c565b50831562000fec5760405162461bcd60e51b815260206004820181905260248201527f537472696e67733a20686578206c656e67746820696e73756666696369656e74604482015260640162000a66565b9392505050565b6109c8806200186f83390190565b8280546200100f90620017d1565b90600052602060002090601f0160209004810192826200103357600085556200107e565b82601f106200104e57805160ff19168380011785556200107e565b828001600101855582156200107e579182015b828111156200107e57825182559160200191906001019062001061565b506200108c92915062001090565b5090565b5b808211156200108c576000815560010162001091565b80356001600160a01b0381168114620010bf57600080fd5b919050565b600082601f830112620010d657600080fd5b81356020620010ef620010e98362001724565b620016f0565b80838252828201915082860187848660051b89010111156200111057600080fd5b60005b85811015620011d457813567ffffffffffffffff808211156200113557600080fd5b908901906060828c03601f19018113156200114f57600080fd5b62001159620016c4565b8884013580151581146200116c57600080fd5b8152604084810135848111156200118257600080fd5b620011928f8c83890101620011e1565b838c015250918401359183831115620011aa57600080fd5b620011ba8e8b85880101620011e1565b908201528752505050928401929084019060010162001113565b5090979650505050505050565b600082601f830112620011f357600080fd5b813567ffffffffffffffff81111562001210576200121062001858565b62001225601f8201601f1916602001620016f0565b8181528460208386010111156200123b57600080fd5b816020850160208301376000918101602001919091529392505050565b6000602082840312156200126b57600080fd5b62000fec82620010a7565b6000806000606084860312156200128c57600080fd5b6200129784620010a7565b9250620012a760208501620010a7565b9150620012b760408501620010a7565b90509250925092565b60008060408385031215620012d457600080fd5b823567ffffffffffffffff80821115620012ed57600080fd5b818501915085601f8301126200130257600080fd5b8135602062001315620010e98362001724565b8083825282820191508286018a848660051b89010111156200133657600080fd5b600096505b848710156200135b5780358352600196909601959183019183016200133b565b50965050860135925050808211156200137357600080fd5b506200138285828601620010c4565b9150509250929050565b6000602082840312156200139f57600080fd5b5035919050565b60008060408385031215620013ba57600080fd5b82359150620013cc60208401620010a7565b90509250929050565b60008060008060808587031215620013ec57600080fd5b84359350602085013567ffffffffffffffff808211156200140c57600080fd5b6200141a88838901620011e1565b945060408701359150808211156200143157600080fd5b506200144087828801620011e1565b925050606085013560ff811681146200145857600080fd5b939692955090935050565b6000602082840312156200147657600080fd5b81356001600160e01b03198116811462000fec57600080fd5b60008151808452620014a981602086016020860162001788565b601f01601f19169290920160200192915050565b60008351620014d181846020880162001788565b835190830190620014e781836020880162001788565b01949350505050565b7f416363657373436f6e74726f6c3a206163636f756e74200000000000000000008152600083516200152a81601785016020880162001788565b7001034b99036b4b9b9b4b733903937b6329607d1b60179184019182015283516200155d81602884016020880162001788565b01602801949350505050565b6001600160a01b03831681526040602082018190526000906200158f908301846200148f565b949350505050565b6001600160a01b0385168152608060208201819052600090620015bd908301866200148f565b8281036040840152620015d181866200148f565b91505060ff8316606083015295945050505050565b83151581526060602082015260006200160360608301856200148f565b82810360408401526200161781856200148f565b9695505050505050565b60208152600062000fec60208301846200148f565b60a0815260006200164b60a08301886200148f565b6020838203818501526200166082896200148f565b60ff881660408601526001600160a01b038781166060870152858203608087015286518083528388019450909183019060005b81811015620016b357855184168352948401949184019160010162001693565b50909b9a5050505050505050505050565b6040516060810167ffffffffffffffff81118282101715620016ea57620016ea62001858565b60405290565b604051601f8201601f1916810167ffffffffffffffff811182821017156200171c576200171c62001858565b604052919050565b600067ffffffffffffffff82111562001741576200174162001858565b5060051b60200190565b600082198211156200176157620017616200182c565b500190565b60008160001904831182151516156200178357620017836200182c565b500290565b60005b83811015620017a55781810151838201526020016200178b565b8381111562000c935750506000910152565b600081620017c957620017c96200182c565b506000190190565b600181811c90821680620017e657607f821691505b602082108114156200180857634e487b7160e01b600052602260045260246000fd5b50919050565b60006000198214156200182557620018256200182c565b5060010190565b634e487b7160e01b600052601160045260246000fd5b634e487b7160e01b600052603260045260246000fd5b634e487b7160e01b600052604160045260246000fdfe608060405234801561001057600080fd5b506040516109c83803806109c883398101604081905261002f91610493565b818161005c60017fa3f0ad74e5423aebfd80d3ef4346578335a9a72aeaee59ff6cb3582b35133d516105a2565b60008051602061098183398151915214610078576100786105f3565b6100848282600061008d565b5050505061061f565b61009683610167565b6040516001600160a01b038416907f1cf3b03a6cf19fa2baba4df148e9dcabedea7f8a5c07840e207e5c089be95d3e90600090a26000825111806100d75750805b1561016257610160836001600160a01b0316635c60da1b6040518163ffffffff1660e01b815260040160206040518083038186803b15801561011857600080fd5b505afa15801561012c573d6000803e3d6000fd5b505050506040513d601f19601f820116820180604052508101906101509190610478565b8361030760201b6100291760201c565b505b505050565b61017a8161033360201b6100551760201c565b6101d95760405162461bcd60e51b815260206004820152602560248201527f455243313936373a206e657720626561636f6e206973206e6f74206120636f6e6044820152641d1c9858dd60da1b60648201526084015b60405180910390fd5b61025c816001600160a01b0316635c60da1b6040518163ffffffff1660e01b815260040160206040518083038186803b15801561021557600080fd5b505afa158015610229573d6000803e3d6000fd5b505050506040513d601f19601f8201168201806040525081019061024d9190610478565b61033360201b6100551760201c565b6102c15760405162461bcd60e51b815260206004820152603060248201527f455243313936373a20626561636f6e20696d706c656d656e746174696f6e206960448201526f1cc81b9bdd08184818dbdb9d1c9858dd60821b60648201526084016101d0565b806102e660008051602061098183398151915260001b61034260201b6100641760201c565b80546001600160a01b0319166001600160a01b039290921691909117905550565b606061032c83836040518060600160405280602781526020016109a160279139610345565b9392505050565b6001600160a01b03163b151590565b90565b60606001600160a01b0384163b6103ad5760405162461bcd60e51b815260206004820152602660248201527f416464726573733a2064656c65676174652063616c6c20746f206e6f6e2d636f6044820152651b9d1c9858dd60d21b60648201526084016101d0565b600080856001600160a01b0316856040516103c89190610553565b600060405180830381855af49150503d8060008114610403576040519150601f19603f3d011682016040523d82523d6000602084013e610408565b606091505b509092509050610419828286610423565b9695505050505050565b6060831561043257508161032c565b8251156104425782518084602001fd5b8160405162461bcd60e51b81526004016101d0919061056f565b80516001600160a01b038116811461047357600080fd5b919050565b60006020828403121561048a57600080fd5b61032c8261045c565b600080604083850312156104a657600080fd5b6104af8361045c565b60208401519092506001600160401b03808211156104cc57600080fd5b818501915085601f8301126104e057600080fd5b8151818111156104f2576104f2610609565b604051601f8201601f19908116603f0116810190838211818310171561051a5761051a610609565b8160405282815288602084870101111561053357600080fd5b6105448360208301602088016105c7565b80955050505050509250929050565b600082516105658184602087016105c7565b9190910192915050565b602081526000825180602084015261058e8160408501602087016105c7565b601f01601f19169190910160400192915050565b6000828210156105c257634e487b7160e01b600052601160045260246000fd5b500390565b60005b838110156105e25781810151838201526020016105ca565b838111156101605750506000910152565b634e487b7160e01b600052600160045260246000fd5b634e487b7160e01b600052604160045260246000fd5b6103538061062e6000396000f3fe60806040523661001357610011610017565b005b6100115b610027610022610067565b61010f565b565b606061004e83836040518060600160405280602781526020016102f760279139610133565b9392505050565b6001600160a01b03163b151590565b90565b600061009a7fa3f0ad74e5423aebfd80d3ef4346578335a9a72aeaee59ff6cb3582b35133d50546001600160a01b031690565b6001600160a01b0316635c60da1b6040518163ffffffff1660e01b815260040160206040518083038186803b1580156100d257600080fd5b505afa1580156100e6573d6000803e3d6000fd5b505050506040513d601f19601f8201168201806040525081019061010a919061024e565b905090565b3660008037600080366000845af43d6000803e80801561012e573d6000f35b3d6000fd5b60606001600160a01b0384163b6101a05760405162461bcd60e51b815260206004820152602660248201527f416464726573733a2064656c65676174652063616c6c20746f206e6f6e2d636f6044820152651b9d1c9858dd60d21b60648201526084015b60405180910390fd5b600080856001600160a01b0316856040516101bb9190610277565b600060405180830381855af49150503d80600081146101f6576040519150601f19603f3d011682016040523d82523d6000602084013e6101fb565b606091505b509150915061020b828286610215565b9695505050505050565b6060831561022457508161004e565b8251156102345782518084602001fd5b8160405162461bcd60e51b81526004016101979190610293565b60006020828403121561026057600080fd5b81516001600160a01b038116811461004e57600080fd5b600082516102898184602087016102c6565b9190910192915050565b60208152600082518060208401526102b28160408501602087016102c6565b601f01601f19169190910160400192915050565b60005b838110156102e15781810151838201526020016102c9565b838111156102f0576000848401525b5050505056fe416464726573733a206c6f772d6c6576656c2064656c65676174652063616c6c206661696c6564a26469706673582212205c66823011fa621d37983527f620f176f69ae4d28f8696495e2cbc602da939ee64736f6c63430008070033a3f0ad74e5423aebfd80d3ef4346578335a9a72aeaee59ff6cb3582b35133d50416464726573733a206c6f772d6c6576656c2064656c65676174652063616c6c206661696c6564a26469706673582212205ff125970b2518d4f749c7a002264db8e2eb07d9a19d778631bd3840e0cc706b64736f6c63430008070033",
    "linkReferences": {},
    "deployedLinkReferences": {}
}